:020000040000FA
:100000000C9438010C9469010C9469010C946901F9
:100010000C9469010C9469010C9469010C946901B8
:100020000C9469010C9469010C9469010C946901A8
:100030000C9469010C9469010C9469010C94690198
:100040000C9469010C9469010C9469010C94690188
:100050000C9469010C9469010C9469010C94AF0A29
:100060000C9469010C94230B0C94F90A0C9469010B
:100070000C9469010C9469010C9469010C94690158
:100080000C9469010C9469010C9469010C94690148
:100090000C9469010C9469010C9469010C94690138
:1000A0000C9469010C9469010C9469010C94690128
:1000B0000C9469010C9469010C9469010C94690118
:1000C0000C9469010C9469010C9469010C94690108
:1000D0000C9469010C9469010C9469010C946901F8
:1000E0000C9469010C949B010C94B2010C9497013F
:1000F0000C943D030C94AE010C9489010C9475038F
:100100000C940C030C942F030C94C9010C949301D0
:100110000C948F010C949E010C941B030C94CA0147
:100120000C94B6010C94D6120C94A8010C94DF0226
:100130000C94A4010C94BC010C94CE010C94C0014D
:100140000C94C2030C94C4010C94590B00002100C0
:10015000240027002A002D00300033000101000098
:10016000040107010A0100002200250028002B00DD
:100170002E003100340002010000050108010B01CE
:10018000000020002300260029002C002F00320050
:100190000001000003010601090105050505070529
:1001A00008080808020202020A0A080804040404F3
:1001B000010101010101010103030303030303031F
:1001C000040707070C0C0C0C0C0C0C0C02020202AE
:1001D00006060606060606060B0B0B0B0B0B0B0B97
:1001E0000102102020080810204010204080020149
:1001F000020108040201010204081020408080402E
:10020000201008040201800402018040201008042C
:1002100002010804020101020408102040800102CA
:1002200004081020408000000A0B02090C0D0E0883
:1002300007030401000000000000000000000000AF
:1002400000000000000000000000000000000000AE
:10025000000012111000000000000000000000006B
:10026000000000000000000000000000590BD61242
:1002700011241FBECFEFD1E2DEBFCDBF00E00CBF27
:1002800017E0A0E0B2E0ECEAF0E300E00BBF02C050
:1002900007900D92A23AB107D9F72AE0A2EAB7E097
:1002A00001C01D92AC38B207E1F711E0C7E3D1E01D
:1002B00000E006C021970109802FFE010E940B1665
:1002C000C633D10780E00807A9F70E94420C0C94BE
:1002D00044180C9400008150823108F05AC0E82F75
:1002E000F0E08827E958FE4F8F4F0C940B169701CA
:1002F0009B0189018F019301C9019E01A401A801FD
:10030000AE01B201B601BC01C001C901C401CA01FC
:10031000CE01809180008F77809380000895809136
:1003200080008F7DF9CF80918000877FF5CF84B5E5
:100330008F7784BD089584B58F7DFBCF8091B00009
:100340008F778093B00008958091B0008F7DF9CFB2
:10035000809190008F778093900008958091900015
:100360008F7DF9CF80919000877FF5CF8091A0009D
:100370008F778093A00008958091A0008F7DF9CFA2
:100380008091A000877FF5CF809120018F778093A7
:1003900020010895809120018F7DF9CF8091200167
:1003A000877FF5CFCF93DF93282F30E0F901EA5D07
:1003B000FD4F8491F901E052FE4FD491F901E656C8
:1003C000FE4FC491CC23A1F081110E946B01EC2F50
:1003D000F0E0EE0FFF1FE058FE4FA591B491EC91B5
:1003E000ED2381E090E009F480E0DF91CF91089562
:1003F00080E090E0FACF1F93CF93DF93282F30E077
:10040000F901EA5DFD4F8491F901E052FE4FD4916C
:10041000F901E656FE4FC491CC23A9F0162F8111A5
:100420000E946B01EC2FF0E0EE0FFF1FEA59FE4F28
:10043000A591B4918FB7F894EC91111108C0D095A3
:10044000DE23DC938FBFDF91CF911F910895DE2BC8
:10045000F8CFCF93DF9390E0FC01E052FE4F249160
:1004600086569E4FFC0184918823C9F090E0880F46
:10047000991FFC01E45BFE4FA591B491FC01EA5980
:10048000FE4FC591D49161110DC09FB7F8948C9126
:10049000209582238C938881282328839FBFDF9116
:1004A000CF910895623051F49FB7F8943C91822F18
:1004B000809583238C93E8812E2BEFCF8FB7F89410
:1004C000EC912E2B2C938FBFEACF90917B00977FDE
:1004D00090937B008653806480937C0080917A00A7
:1004E000806480937A0080917A0086FDFCCF8091B1
:1004F00078009091790008953FB7F89480915B0956
:1005000090915C09A0915D09B0915E0926B5A89B08
:1005100005C02F3F19F00196A11DB11D3FBFBA2F95
:10052000A92F982F8827BC01CD01620F711D811D55
:10053000911D42E0660F771F881F991F4A95D1F7DA
:1005400008958F929F92AF92BF92CF92DF92EF92D7
:10055000FF924B015C010E947C026B017C010E94B6
:100560007C026C197D098E099F09683E73408105E4
:100570009105A8F321E0821A9108A108B10888EE3C
:10058000C80E83E0D81EE11CF11C81149104A10463
:10059000B10429F7FF90EF90DF90CF90BF90AF901C
:1005A0009F908F9008952FB7F8946091570970919C
:1005B00058098091590990915A092FBF0895AF9217
:1005C000BF92CF92DF92EF92FF920F931F93CF9340
:1005D000DF936C017B018B01040F151FEB015E01A2
:1005E000AE18BF08C017D10759F06991D601ED9137
:1005F000FC910190F081E02DC6011995892B79F7C6
:10060000C501DF91CF911F910F91FF90EF90DF9087
:10061000CF90BF90AF900895FC01538D448D252F4E
:1006200030E0842F90E0821B930B541710F0CF968C
:10063000089501970895FC01918D828D981761F0BE
:10064000A28DAE0FBF2FB11D5D968C91928D9F5FD5
:100650009F73928F90E008958FEF9FEF0895FC01B4
:10066000918D828D981731F0828DE80FF11D858D67
:1006700090E008958FEF9FEF0895FC01918D228DFA
:10068000892F90E0805C9F4F821B91098F7399277F
:1006900008958FE599E00E943D0321E0892B09F43C
:1006A00020E0822F0895FC01A48DA80FB92FB11D61
:1006B000A35ABF4F2C91848D90E001968F73992798
:1006C000848FA689B7892C93A089B1898C91837076
:1006D00080648C93938D848D981306C00288F3896F
:1006E000E02D80818F7D80830895EF92FF920F939C
:1006F0001F93CF93DF93EC0181E0888F9B8D8C8DCE
:1007000098131AC0E889F989808185FF15C09FB7C1
:10071000F894EE89FF896083E889F9898081837084
:10072000806480839FBF81E090E0DF91CF911F9133
:100730000F91FF90EF900895F62E0B8D10E00F5F54
:100740001F4F0F731127E02E8C8D8E110CC00FB62A
:1007500007FCFACFE889F989808185FFF5CFCE01C2
:100760000E945303F1CFEB8DEC0FFD2FF11DE35AE7
:10077000FF4FF0829FB7F8940B8FEA89FB89808145
:100780008062CFCFCF93DF93EC01888D8823B9F0BF
:10079000AA89BB89E889F9898C9185FD03C080818C
:1007A00086FD0DC00FB607FCF7CF8C9185FFF2CF09
:1007B000808185FFEDCFCE010E945303E9CFDF9109
:1007C000CF91089580E090E0892B29F00E944903A1
:1007D00081110E94000080E090E0892B49F080E0C8
:1007E00090E0892B29F00E94000081110E940000F6
:1007F00080E090E0892B49F080E090E0892B29F09F
:100800000E94000081110E94000080E090E0892B8E
:1008100049F080E090E0892B29F00E9400008111CE
:100820000C9400000895E0912A08F0912B08809123
:1008300008028823D9F03197E031F105B0F48091B6
:10084000280890912908029624E0880F991F2A957C
:10085000E1F7DC01A05DB74FAE0FBF1F21E02C9385
:100860008E55984FE80FF91F208308953196E4CFF5
:1008700080912A0890912B088E3F2FEF92070CF45D
:1008800046C08E309105E4F4E0912808F0912908E3
:10089000DF0164E0AA0FBB1F6A95E1F7A05DB74FC7
:1008A000AC014E5F5F4FA40FB51F1C9274E0EE0FBA
:1008B000FF1F7A95E1F7E05CF74FE40FF51F108218
:1008C0008E3FEFEF9E0719F18F30910574F4E091A0
:1008D0002808F091290854E0EE0FFF1F5A95E1F720
:1008E000E05CF74FE80FF91F11828F3F980779F00E
:1008F000209128083091290844E0220F331F4A959F
:10090000E1F7205C374F820F931FFC01108208959E
:1009100080912A0890912B08823191050CF045C0F6
:1009200082309105E4F0E0912808F0912908DF0178
:1009300064E0AA0FBB1F6A95E1F7A05DB74FAC0159
:1009400042505109A40FB51F1C9274E0EE0FFF1F17
:100950007A95E1F7E05CF74FE40FF51F10828131E3
:10096000910519F11816190674F4E0912808F09110
:10097000290854E0EE0FFF1F5A95E1F7E80FF91F21
:10098000E15CF74F10828031910579F020912808C1
:100990003091290844E0220F331F4A95E1F7205C8B
:1009A000374F820F931FFC01108208957F928F9220
:1009B0009F92AF92BF92CF92DF92EF92FF920F93EE
:1009C0001F93CF93DF93882E792E5B0100E213E013
:1009D0009CEFE92E99E0F92EF80190800E5F1F4FF1
:1009E00060E0892D0E94FB0180E3C82E83E0D82EB1
:1009F000C82DD72DAC16BD06E4F0F6018081F2E0DB
:100A0000CF0ED11CF70124813581C217D30760F4C2
:100A1000208131812115310539F02C0F3D1FF9015D
:100A2000908161E0913309F060E00E94FB01219622
:100A3000E1CF61E070E080E090E00E94A10261E01F
:100A4000892D0E94FB01F6E0EF0EF11C83E00033DC
:100A5000180711F6DF91CF911F910F91FF90EF9042
:100A6000DF90CF90BF90AF909F908F907F90089530
:100A70001F93CF93DF93EC01FB01EE0FFF1FE05EAE
:100A8000FC4F108160E0812F0E94FB01CC0FDD1F25
:100A9000C05DDC4FC88161E08C2F0E94FB018BE2BE
:100AA00091E10197F1F761E0812F0E94FB0160E085
:100AB0008C2FDF91CF911F910C94FB01CF92DF928D
:100AC000EF92FF920F931F93CF93DF931F921F928A
:100AD000CDB7DEB769834A83880F991F0091860AD4
:100AE0001091870A000F111FE0E3FAE09F012053E5
:100AF0003A402017310714F41192F8CF2981FC01F4
:100B0000E05DF54F21838A81808360E08091840AD3
:100B10000E94FB011016110604F501501109F8019D
:100B2000E05DF54FE080D090820AC090800A88E0B6
:100B3000F82E6E2D661F6627661F8C2D0E94FB0106
:100B4000EE0C61E08D2D0E94FB0160E08D2D0E9476
:100B5000FB01FA94F110EDCFDDCF61E08091840AC2
:100B60000F900F90DF91CF911F910F91FF90EF9019
:100B7000DF90CF900C94FB01EF92FF921F93CF93E5
:100B8000DF932091860A3091870A82179307B4F485
:100B9000EC0123E0880F991F2A95E1F79C01205C66
:100BA000354F790111E0F70111927F0140E0612F8B
:100BB000CE010E945E051F5F1930A9F7DF91CF912A
:100BC0001F91FF90EF9008952091860A3091870A37
:100BD00012161306FCF488309105E0F468307105B4
:100BE000C9F020E830E002C0359527956A95E2F714
:100BF000FC01E05DF54F5089442349F0252B208B03
:100C000061E0680F408990E080E00C945E052095DB
:100C10002523F5CF08957F928F929F92AF92BF9236
:100C2000CF92DF92EF92FF920F931F93CF93DF93B8
:100C30008C017B01D0E0C0E083ECA82EB12C6801D0
:100C40008FEFC81AD80AC530D10534F577247394CC
:100C5000CE15DF050CF0712C472D4E0183E0880E78
:100C6000911CB401C8010E94E405472DB401C601DE
:100C70000E94E4052196CA30D10529F7DF91CF9172
:100C80001F910F91FF90EF90DF90CF90BF90AF90AA
:100C90009F908F907F900895CE15DF056CF4B8017A
:100CA0004E0185E0881A9108C4010E943805B601FA
:100CB000C4010E943805DECFC5010197F1F7DACFF4
:100CC000AF92BF92CF92DF92EF92FF920F931F935A
:100CD000CF93DF9330E3E32E38E0F32E10E000E013
:100CE000D0E0C0E041E0F701EC0FFD1F80818130D2
:100CF00009F040E0BE01C8010E94E4052196C83019
:100D0000D10581F70F5F1F4F80E1E80EF11C08301D
:100D1000110531F793E0E92EF12C23ECA22EB12C32
:100D200080E3C82E88E0D82E10E000E0C8E0D0E0D4
:100D3000F601EC0FFD1F8081813001F5B801CE0175
:100D400008970E9438052196C031D10589F70F5FB9
:100D50001F4F80E1C80ED11C0830110539F781E022
:100D6000E81AF108E9F6DF91CF911F910F91FF90FA
:100D7000EF90DF90CF90BF90AF900895C50101979D
:100D8000F1F7E1CFCF92DF92EF92FF920F931F9393
:100D9000CF93DF937C016B010CEF19E0D0E0C0E052
:100DA000F80184819581C816D90658F48081918113
:100DB000009739F08C0D9D1DFC01808141E081334D
:100DC00009F040E0B701CE010E94E40521960A5FD8
:100DD0001F4FC830D10521F7DF91CF911F910F919F
:100DE000FF90EF90DF90CF9008956F927F928F9257
:100DF0009F92AF92BF92CF92DF92EF92FF920F93AA
:100E00001F93CF93DF935C017C01D0E0C0E06701CA
:100E100010E000E0F60181916F0141E0813009F0BE
:100E200040E0B801CE010E94E4050F5F1F4F08307B
:100E3000110581F72196F0E1EF0EF11CC830D105C4
:100E400031F783E0E82EF12C93EC692E712C6501CB
:100E500088E0C80ED11CD0E0C0E0460110E000E000
:100E6000F40181914F01813019F5BE01C8010E9442
:100E700038050F5F1F4F0830110591F72196F0E1FB
:100E8000CF0ED11CC830D10541F781E0E81AF10836
:100E9000F1F6DF91CF911F910F91FF90EF90DF90CE
:100EA000CF90BF90AF909F908F907F906F9008955C
:100EB000C3010197F1F7DDCFFC0101900020E9F7B4
:100EC0003197AF01481B590BBC018FE599E00C9499
:100ED000DF02CF93DF930E945C07EC0182E593E091
:100EE0000E945C078C0F9D1FDF91CF9108952F9278
:100EF0003F924F925F926F927F928F929F92AF92AA
:100F0000BF92CF92DF92EF92FF920F931F93CF93F6
:100F1000DF9392E1692E98E0792E20EAE22E28E014
:100F2000F22E37E0C32ED12C3324339445E0442EE7
:100F3000512C22242394809128089091290801960D
:100F40008C159D050CF09BC0D0E0C0E083010C0F18
:100F50001D1FD8018C91813009F077C0B7E0CB1606
:100F6000D10409F081C0FE01EE0FFF1FE055F74FDD
:100F700080819181019709F060C011821082809177
:100F8000030290910402019790930402809303025C
:100F900080912608909127080196909327088093C6
:100FA0002608B2010E94F715892B69F480919302FB
:100FB000909194020196909394028093930285E518
:100FC00093E00E9469078091030290910402892BAB
:100FD000A1F58AE693E00E9469078091050290914D
:100FE0000602019690930602809305020E94D302A6
:100FF0000E94D3024B015C01E0ED8E0EE7E09E1EE5
:10100000A11CB11C0E94D302681579058A059B05B5
:10101000C8F3209207021092290810922808109213
:101020002B0810922A080E94D30260932208709322
:1010300023088093240890932508D8011C92F70177
:10104000EC0FFD1F1082209202022196C031D105C3
:1010500009F07CCFB1E0CB1AD108E0E16E1A71083B
:10106000F0E1EF1AF10867CFF8011082F701EC0FF9
:10107000FD1F1082D80150963C92308AE6CFDF9156
:10108000CF911F910F91FF90EF90DF90CF90BF9085
:10109000AF909F908F907F906F905F904F903F9018
:1010A0002F9008954F925F926F927F92AF92BF926E
:1010B000CF92DF92EF92FF920F931F93CF93DF9324
:1010C000CDB7DEB7A1970FB6F894DEBF0FBECDBF88
:1010D00009E812E0F80190E080E0219131912F3F82
:1010E0003F4F61F4880F991FFC01E757FD4F809136
:1010F000260890912708918380832CC00196853023
:10110000910559F780918B0290918C0290938A02FD
:101110008093890280918D0290918E0290938C022F
:1011200080938B0280918F029091900290938E0217
:1011300080938D02809191029091920290939002FF
:1011400080938F02809126089091270890939202B5
:10115000809391028AE793E00E94690783E9A82EB1
:1011600082E0B82E9AE0492E512C612C712CF801A6
:10117000C190D1908F010D2C000CEE08FF08F7FEF6
:1011800041C06DE28FE599E00E9475032227332765
:10119000A9012C193D094E095F0919A2CE018196BA
:1011A0007C01CA01B901A30192010E94E214605DB1
:1011B000F70162937F01211531054105510589F73A
:1011C000E114F10419F0C7010E945C0782E593E085
:1011D0000E945C07A016B10651F6A1960FB6F894CE
:1011E000DEBF0FBECDBFDF91CF911F910F91FF905A
:1011F000EF90DF90CF90BF90AF907F906F905F9017
:101200004F900895A701960119A2CE0181967C0105
:10121000CA01B901A30192010E94E214605DF701C5
:1012200062937F01211531054105510589F7C8CF2A
:1012300080919302909194020197909394028093ED
:101240009302892BD9F40E94520810922708109219
:10125000260883E090E0909394028093930210928A
:101260002B0810922A08109229081092280881E071
:1012700090E09093060280930502089580912808DB
:10128000909129080297909329088093280808953F
:1012900080912A0890912B0820910802222309F4BA
:1012A00065C002978031910510F520912808309192
:1012B0002908F901A4E0EE0FFF1FAA95E1F7E05D10
:1012C000F74FE80FF91F4081413069F0E4E0220F49
:1012D000331FEA95E1F7205C374F820F931FFC0123
:1012E0008081813021F483E893E00E946907809136
:1012F0002A0890912B089C01215031092031310599
:10130000B0F4E0912808F091290874E0EE0FFF1F77
:101310007A95E1F7E80FF91FE15CF74F80818130A2
:1013200031F480EA93E00E9469070E9418098091D5
:101330002A0890912B08803191050CF065C0E0914E
:101340002808F091290864E0EE0FFF1F6A95E1F785
:10135000E05CF74FE80FF91F8081813009F054C03D
:101360008DEB93E00E9469070C9418090296803176
:10137000910520F52091280830912908F90154E0C1
:10138000EE0FFF1F5A95E1F7E05DF74FE80FF91FE9
:101390004081413069F044E0220F331F4A95E1F764
:1013A000205C374F820F931FFC018081813031F424
:1013B00083E893E00E9469070E94180980912A0837
:1013C00090912B089C012F5F3F4F20313105B0F4E5
:1013D000E0912808F091290824E0EE0FFF1F2A95DC
:1013E000E1F7E05CF74FE80FF91F8181813031F4BC
:1013F00080EA93E00E9469070E94180980912A08F8
:1014000090912B0897FF9BCF08950F931F93CF9335
:10141000DF930E94D30200912208109123082091AB
:10142000240830912508601B710B820B930B603DE3
:101430007740810591059CF0C0912808D09129083A
:101440000E94D3026093220870932308809324089B
:10145000909325082196D0932908C093280880915D
:10146000280890912908079729F580919302909177
:10147000940201979093940280939302892BF9F43C
:101480000E945208109227081092260883E090E0EC
:10149000909394028093930210922B0810922A0842
:1014A000109229081092280881E090E0909306029B
:1014B00080930502DF91CF911F910F91089584E0F1
:1014C00090E09093290880932808F4CFEF92FF9240
:1014D0000F931F93CF93DF93EC017B011982188246
:1014E0001B821A821D821C82FB0101900020E9F7F9
:1014F00031978F01061B170BB8016F5F7F4F90E08C
:1015000080E00E9453170097B9F0998388831B836A
:101510000A832C813D81232B11F4FC0110821D8351
:101520000C83B70188819981DF91CF911F910F9131
:10153000FF90EF900C943D1888819981009711F0ED
:101540000E94CA16198218821D821C821B821A826E
:10155000DF91CF911F910F91FF90EF9008951F920F
:101560000F920FB60F9211242F933F938F939F9357
:10157000AF93BF938091570990915809A091590951
:10158000B0915A093091560923E0230F2D3758F5B1
:101590000196A11DB11D2093560980935709909380
:1015A0005809A0935909B0935A0980915B09909109
:1015B0005C09A0915D09B0915E090196A11DB11D64
:1015C00080935B0990935C09A0935D09B0935E09D9
:1015D000BF91AF919F918F913F912F910F900FBE2F
:1015E0000F901F90189526E8230F0296A11DB11D9C
:1015F000D2CF1F920F920FB60F9211240BB60F92FB
:101600002F933F934F935F936F937F938F939F930A
:10161000AF93BF93EF93FF938FE599E00E9453033D
:10162000FF91EF91BF91AF919F918F917F916F91BA
:101630005F914F913F912F910F900BBE0F900FBE76
:101640000F901F9018951F920F920FB60F921124B2
:101650000BB60F922F938F939F93EF93FF93E0918D
:101660006F09F09170098081E0917509F091760918
:1016700082FD1DC09081809178098F5F8F732091CA
:101680007909821741F0E0917809F0E0E15AF64FCC
:10169000958F80937809FF91EF919F918F912F9172
:1016A0000F900BBE0F900FBE0F901F90189580816A
:1016B000F2CFCF93DF93109262091092610988EE06
:1016C00093E0A0E0B0E08093630990936409A09355
:1016D0006509B093660984E493E090936009809370
:1016E0005F0985EC90E090936C0980936B0984EC22
:1016F00090E090936E0980936D0980EC90E0909358
:10170000700980936F0981EC90E090937209809347
:10171000710982EC90E0909374098093730986ECD0
:1017200090E0909376098093750910927809109251
:10173000790910927A0910927B09C3E3D0E0D09323
:10174000810AC093800A85E390E09093830A809396
:10175000820A81E390E09093850A8093840A81E075
:1017600090E09093870A8093860A61E083E30E9469
:10177000290261E08091820A0E94290261E0809141
:10178000840A0E94290261E08091840A0E94FB0180
:10179000D093810AC093800AE0E4FAE080E89AE0FE
:1017A00011928E179F07E1F7D0E0C0E08091860A82
:1017B0009091870AC817D9073CF540E06FE0CE0149
:1017C0000E945E058091860A9091870AC817D90702
:1017D0002CF447E06BE0CE010E945E0540E069E03A
:1017E000CE010E945E05CE010E94BC058091860A52
:1017F0009091870AC817D9072CF440E06CE0CE011D
:101800000E945E052196D2CF0E94D30260932C0ADB
:1018100070932D0A80932E0A90932F0A0E94D30270
:1018200065ED73E08CEF99E00E94660A6AE474E06B
:1018300082E09AE00E94660A6FEB74E088E09AE02A
:101840000E94660A64E375E08EE09AE00E94660AF0
:1018500069EA75E084E19AE00E94660A6EE176E04A
:101860008AE19AE00E94660A63E976E080E29AE003
:101870000E94660A68E077E086E29AE0DF91CF9105
:101880000C94660ACF93DF93CDB7DEB7A8970FB657
:10189000F894DEBF0FBECDBF789484B5826084BD5E
:1018A00084B5816084BD85B5826085BD85B5816064
:1018B00085BD80916E00816080936E0010928100E2
:1018C000809181008260809381008091810081609D
:1018D000809381008091800081608093800080915E
:1018E000B10084608093B1008091B00081608093EA
:1018F000B00080919100826080939100809191006E
:10190000816080939100809190008160809390002D
:101910008091A10082608093A1008091A1008160EC
:101920008093A1008091A00081608093A0008091AD
:101930002101826080932101809121018160809347
:1019400021018091200181608093200180917A00A3
:10195000846080937A0080917A00826080937A001C
:1019600080917A00816080937A0080917A0080680B
:1019700080937A001092C100E0916F09F091700994
:1019800082E08083E0916B09F0916C091082E09114
:101990006D09F0916E098FEC808310927709E091C8
:1019A0007309F091740986E08083E0917109F091E8
:1019B0007209808180618083E0917109F0917209E0
:1019C000808188608083E0917109F0917209808143
:1019D00080688083E0917109F091720980818F7D28
:1019E0008083E0E3EE2EE3E0FE2E8701F8018081A4
:1019F0000E5F1F4F61E00E942902F3E000341F07D1
:101A0000A9F700E213E06801F6018081F2E0CF0E51
:101A1000D11C61E00E94290220E3C21623E0D20615
:101A200099F7F7018081F2E0EF0EF11C60E00E946F
:101A3000FB0120E4E21623E0F20699F7F801808129
:101A40000E5F1F4F61E00E94FB01F3E000331F07B0
:101A5000A9F78091860A9091870A1816190634F41E
:101A600041E06CE090E080E00E945E058091860A93
:101A70009091870A1816190634F44FE06AE090E056
:101A800080E00E945E0590E080E00E94BC0562E07C
:101A900084E30E94290262E082E30E94290262E05C
:101AA00080E30E94290260E08EE20E942902CE01BA
:101AB000019698A38F8FFE017596FAA3E9A3FCA364
:101AC000EBA384E30E94D2017C018EE20E94D2014A
:101AD0009EA38DA382E30E94D2018C0180E30E9429
:101AE000D2013C01809154099091550982309105B1
:101AF00009F49FC148F4009709F45CC0019709F408
:101B000070C10E94E203DDCF8330910509F48DC3DB
:101B10000497B9F78BE997E00E94690790E080E0AD
:101B20000E94BC0586E30E9465022AE030E0DC01E9
:101B30000E941316C12C24E0D22EE12CF12CA70117
:101B400096010E94B01449015A018FEF881A980A31
:101B5000A80AB80A909253098092520987E30E941A
:101B60006502BC01990F880B990B33E0660F771F54
:101B7000881F991F3A95D1F7A70196010E94B014CA
:101B800069017A0193E0C90ED11CE11CF11CD092CD
:101B90005109C0925009D0929402C0929302B401AC
:101BA00081E090E00E940B06B60185E090E00E9483
:101BB0000B064BC40091000210910102B80168505D
:101BC0007109480197E0891A91085801E6E0AE1AB8
:101BD000B1086801F5E0CF1AD108780124E0E21AD3
:101BE000F108380183E0681A7108280192E0491A67
:101BF0005108F8013197F8A7EFA31801F7E02F0E6D
:101C0000311C8091150390E0882309F498C080E08E
:101C10000E94C206B40181E090E00E94C206B501B4
:101C200082E090E00E94C206B60183E090E00E944C
:101C3000C206B70184E090E00E94C206B30185E0CD
:101C400090E00E94C206B20186E090E00E94C206C7
:101C50006FA178A587E090E00E94C206B101C8019B
:101C60000E94D604093F1F4F31F48BE790E0909318
:101C70000102809300020E94D30200912C0A10916D
:101C80002D0A20912E0A30912F0A601B710B820BB6
:101C9000930B683C7105810591059CF080910002D1
:101CA00090910102019790930102809300020E949B
:101CB000D30260932C0A70932D0A80932E0A90937E
:101CC0002F0A8DA19EA1892B69F468EC70E080E059
:101CD00090E00E94A10280911503882309F47DC041
:101CE0001092150380E30E94D201892B09F009CFDD
:101CF0008DE797E00E94690768EE73E080E090E06E
:101D00000E94A10280E30E94D201892B09F0F9CE42
:101D100080E897E00E94690768EE73E080E090E059
:101D20000E94A10280E30E94D201892B09F0E9CE32
:101D300081E090E09093550980935409E2CE80E0D1
:101D40000E94C206B40181E090E00E94C206B50183
:101D500082E090E00E94C206B60183E090E00E941B
:101D6000C206B70184E090E00E94C206B30185E09C
:101D700090E00E94C206B20186E090E00E94C20696
:101D80006FA178A587E090E00E94C206B101C8016A
:101D90000E94D6040E37110531F489EF9FEF90931E
:101DA0000102809300020E94D30200912C0A10913C
:101DB0002D0A20912E0A30912F0A601B710B820B85
:101DC000930B683C7105810591050CF47ACF8091E5
:101DD000000290910102019666CF81E08093150385
:101DE00081CF85E992E00E94F50683E897E00E94A2
:101DF0006907EF2869F4E2E0F0E0F0935509E09319
:101E0000540964E670E080E090E00E94A10279CE7F
:101E10008DA19EA1892B39F483E090E09093550920
:101E200080935409EECF012B09F06BCE84E090E053
:101E3000F5CF85E897E00E94690784E30E94D2010C
:101E4000892B21F40E9488041092080282E30E94E8
:101E5000D201892B29F40E94380481E08093080282
:101E6000C0902C08D0902D08E0902E08F0902F08FC
:101E700080910802882309F4EEC00E9488040E9421
:101E8000D3026C197D098E099F09683C7105810593
:101E90009105CCF00E9477070E94D30260932C0832
:101EA00070932D0880932E0890932F0880912A0814
:101EB00090912B08019662E170E00E94F7159093D3
:101EC0002B0880932A080E94050A0E9448098EE286
:101ED0000E94D201892B41F480910202882321F0D3
:101EE0000E9413041092020280912A0890912B08FC
:101EF000823191050CF048C082309105ECF0E09100
:101F00002808F0912908DF0164E0AA0FBB1F6A9539
:101F1000E1F7A05DB74FAC0142505109A40FB51FC6
:101F200061E06C9374E0EE0FFF1F7A95E1F7E05CDF
:101F3000F74FE40FF51F60838131910529F11816E1
:101F400019067CF4E0912808F091290854E0EE0F7E
:101F5000FF1F5A95E1F7E80FF91FE15CF74F21E009
:101F600020838031910581F0209128083091290843
:101F700044E0220F331F4A95E1F7205C374F820F70
:101F8000931F21E0FC0120830E94600680910702DC
:101F9000882309F4F0C0E0EBF8E080ED98E01192BE
:101FA00011928E179F07D9F7809105029091060232
:101FB0000296813191050CF0CEC09093040280937B
:101FC000030210E000E0CC24C394D12C5524539498
:101FD0008091030290910402081719070CF0C9C000
:101FE0000E94341320E130E040E050E00E94B01441
:101FF0004B017B010E943413F401EE0FFF1FE055EB
:10200000F74F208131812130310509F4AFC0D182F1
:10201000C08224E030E040E050E00E94B0146F5FE6
:102020007F4F8F4F9F4F90E080E0E816F90609F050
:1020300095C0A701405D574F30E020E04051510965
:10204000261737070CF08AC0FA01E058FF4F50827C
:102050002F5F3F4FF3CF0E9438040E94D3026C19C8
:102060007D098E099F09683C710581059105D4F0B1
:102070000E9477070E94D30260932C0870932D086A
:1020800080932E0890932F0880912A0890912B0816
:1020900001978E3FFFEF9F070CF45AC090932B08D7
:1020A00080932A080E94050A0E9448098EE20E9435
:1020B000D201892B41F480910202882321F00E94F1
:1020C00013041092020280912A0890912B088E3FEF
:1020D0002FEF92070CF458CF8E309105ECF4E0917D
:1020E0002808F0912908DF0104E0AA0FBB1F0A9518
:1020F000E1F7A05DB74FAC014E5F5F4FA40FB51F76
:1021000061E06C9324E0EE0FFF1F2A95E1F7E05C9D
:10211000F74FE40FF51F60838E3FEFEF9E0709F442
:1021200033CF8F3091057CF4E0912808F091290895
:1021300014E0EE0FFF1F1A95E1F7E05CF74FE80F90
:10214000F91F21E021838F3F980709F00DCF1CCFA5
:102150008FE090E0A3CF80E190E02FCF0196803117
:10216000910509F062CF0F5F1F4F32CF0150110967
:10217000FACF10920702672809F0C3CC85E090E0FF
:10218000909355098093540964E670E080E090E0F4
:102190000E94A10201E010E080915409909155093C
:1021A000059709F02ECE89E092E00E94F50680E3C3
:1021B0000E94D201892B81F768EE73E080E090E005
:1021C0000E94A1028DE797E00E94690780E30E94C8
:1021D000D201892B09F768EE73E080E090E00E945D
:1021E000A10280E897E00E94690782E090E0909366
:1021F00055098093540980E30E94D201892B61F62E
:1022000068EE73E080E090E00E94A1028BE897E026
:102210000E94690780E30E94D201892B09F0BCCF9C
:102220001093550900935409B7CF8EE897E00E94A8
:10223000690790E080E00E94BC0580ED98E030E006
:1022400020E0FC01E20FF31F10822F5F3F4F20318F
:102250003105B9F74096E9E080359E0781F784E1C2
:10226000EF8DF8A111928A95E9F78AE0E9A1FAA128
:1022700011928A95E9F709E812E07801812C912CF6
:102280005401F701619171917F0177FD0EC0072E16
:10229000000C880B990B0E9493139B01AC01C501A4
:1022A000B4010E9414154B015C01F3E9EF16F2E052
:1022B000FF0639F7CE0101967C016C01F8016191AE
:1022C00071918F0177FD15C0072E000C880B990BBB
:1022D0000E949313A50194010E94801520E030E034
:1022E00040E051E40E94F213F6016083718382831F
:1022F0009383F4E0CF0ED11C22E003391207F1F6EC
:10230000CE0145966C018C01E4E04E2E512CF3E099
:102310002F2E312CF70181909190A190B1907F01E7
:1023200020E030E0A901C501B4010E94F2151816A1
:102330000CF091C020E030E040E85FE3C501B4015B
:102340000E948C1318160CF486C081E090E0F8010E
:10235000918380830E5F1F4F8BA19CA1E816F90625
:10236000C9F622E030E081E090E011E0F6016191F1
:1023700071916F011616170694F4FC01E05CF64F9C
:1023800050E040E01083DF01A81BB90BA20FB31F80
:102390001C934F5F5F4F70976417750799F703960B
:1023A0002D5F3F4F8031910509F770EDC72E78E022
:1023B000D72EF12CE12C10E000E041E0F601E00F17
:1023C000F11F8081813009F040E0B801C7010E940F
:1023D000E4050F5F1F4F0830110579F7FFEFEF1A83
:1023E000FF0A20E1C20ED11C88E0E816F10419F7BB
:1023F00053E0C52ED12C63EC862E912C40EDA42EFB
:1024000048E0B42EF12CE12C08E010E0F501E00FDB
:10241000F11F8081813009F0C5C0B701C80108975C
:102420000E9438050F5F1F4F0031110579F79FEFAC
:10243000E91AF90AE0E1AE0EB11CF8E0EF16F1047A
:1024400019F721E0C21AD108C9F681E090E06728A7
:1024500009F057CBE3CC20E030E040E85FE3C50172
:10246000B4010E94F21518166CF420E030E040E050
:1024700050E4C501B4010E948C1318161CF082E0D0
:1024800090E065CF20E030E040E050E4C501B401C9
:102490000E94F215181674F420E030E040E450E495
:1024A000C501B4010E948C13181624F0F801318282
:1024B000208250CF20E030E040E450E4C501B40178
:1024C0000E94F215181674F420E030E040E850E461
:1024D000C501B4010E948C13181624F0F801518232
:1024E000408238CF20E030E040E850E4C501B4013C
:1024F0000E94F21518166CF420E030E040EA50E437
:10250000C501B4010E948C1318161CF085E090E000
:102510001ECF20E030E040EA50E4C501B4010E9443
:10252000F21518166CF420E030E040EC50E4C501E0
:10253000B4010E948C1318161CF086E090E007CFBF
:1025400020E030E040EC50E4C501B4010E94F215F7
:1025500018166CF420E030E040EE50E4C501B40100
:102560000E948C1318161CF087E090E0F0CE20E05B
:1025700030E040EE50E4C501B4010E94F215181697
:102580006CF420E030E040E051E4C501B4010E9469
:102590008C1318161CF088E090E0D9CEF801118257
:1025A0001082D8CEC4010197F1F73CCFCF93DF93CF
:1025B000CCE2DAE0269788819981009711F00E9499
:1025C000CA1689E0CC3FD807A9F7DF91CF910895CB
:1025D0008F929F92AF92BF92CF92DF92EF92FF9233
:1025E000CF93DF93EC01688179818A819B816115AA
:1025F00071058105910521F464E279ED8BE597E0A1
:102600002DE133EF41E050E00E94B01449015A013E
:102610009B01AC01A7EAB1E40E94CF146B017C01DD
:10262000ACEEB4EFA50194010E94DD14C60ED71ED6
:10263000E81EF91EF7FE06C081E0C81AD108E108BD
:1026400080E8F80AC882D982EA82FB82C701B60113
:102650009F77DF91CF91FF90EF90DF90CF90BF9069
:10266000AF909F908F9008958F929F92AF92BF925C
:10267000CF92DF92EF92FF92609116037091170351
:1026800080911803909119036115710581059105D9
:1026900021F464E279ED8BE597E02DE133EF41E041
:1026A00050E00E94B01449015A019B01AC01A7EA15
:1026B000B1E40E94CF146B017C01ACEEB4EFA50134
:1026C00094010E94DD14C60ED71EE81EF91EF7FE07
:1026D00006C081E0C81AD108E10880E8F80AC09273
:1026E0001603D0921703E0921803F0921903C70162
:1026F000B6019F77FF90EF90DF90CF90BF90AF90A3
:102700009F908F90089560931603709317038093A2
:1027100018039093190308950E94CE1308F481E0E2
:102720000895E89409C097FB3EF4909580957095C4
:1027300061957F4F8F4F9F4F9923A9F0F92F96E90D
:10274000BB279395F695879577956795B795F11182
:10275000F8CFFAF4BB0F11F460FF1BC06F5F7F4F1F
:102760008F4F9F4F16C0882311F096E911C0772331
:1027700021F09EE8872F762F05C0662371F096E83A
:10278000862F70E060E02AF09A95660F771F881F09
:10279000DAF7880F9695879597F90895990F0008AD
:1027A000550FAA0BE0E8FEEF16161706E807F90723
:1027B000C0F012161306E407F50798F0621B730BBE
:1027C000840B950B39F40A2661F0232B242B252B3F
:1027D00021F408950A2609F4A140A6958FEF811DE2
:1027E000811D08950E9405140C9476140E946814AB
:1027F00038F00E946F1420F0952311F00C945F14B0
:102800000C94651411240C94AA140E94871470F37C
:10281000959FC1F3950F50E0551F629FF001729F85
:10282000BB27F00DB11D639FAA27F00DB11DAA1F94
:10283000649F6627B00DA11D661F829F2227B00DE1
:10284000A11D621F739FB00DA11D621F839FA00D6C
:10285000611D221F749F3327A00D611D231F849FBC
:10286000600D211D822F762F6A2F11249F57504013
:102870009AF0F1F088234AF0EE0FFF1FBB1F661F8E
:10288000771F881F91505040A9F79E3F510580F057
:102890000C945F140C94AA145F3FE4F3983ED4F3B5
:1028A000869577956795B795F795E7959F5FC1F7FB
:1028B000FE2B880F911D9695879597F9089597F9A6
:1028C0009F6780E870E060E008959FEF80EC0895D6
:1028D00000240A94161617061806090608950024FF
:1028E0000A9412161306140605060895092E039479
:1028F000000C11F4882352F0BB0F40F4BF2B11F4ED
:1029000060FF04C06F5F7F4F8F4F9F4F089557FD4B
:102910009058440F551F59F05F3F71F04795880F4D
:1029200097FB991F61F09F3F79F0879508951216E4
:1029300013061406551FF2CF4695F1DF08C0161690
:1029400017061806991FF1CF869571056105089441
:102950000895E894BB2766277727CB0197F9089558
:10296000052E97FB1EF400940E94C71457FD07D054
:102970000E94E21407FC03D04EF40C94C714509547
:102980004095309521953F4F4F4F5F4F089590955B
:102990008095709561957F4F8F4F9F4F08950E944E
:1029A0000415A59F900DB49F900DA49F800D911DBF
:1029B00011240895B7FF0C94CF140E94CF14821BEA
:1029C000930B0895A1E21A2EAA1BBB1BFD010DC09B
:1029D000AA1FBB1FEE1FFF1FA217B307E407F507CF
:1029E00020F0A21BB30BE40BF50B661F771F881FAB
:1029F000991F1A9469F760957095809590959B0141
:102A0000AC01BD01CF010895A29FB001B39FC001E9
:102A1000A39F700D811D1124911DB29F700D811D0A
:102A20001124911D08955058BB27AA270E942B15E9
:102A30000C9476140E94681438F00E946F1420F0F1
:102A400039F49F3F19F426F40C9465140EF4E095C4
:102A5000E7FB0C945F14E92F0E94871458F3BA1710
:102A6000620773078407950720F079F4A6F50C94A4
:102A7000A9140EF4E0950B2EBA2FA02D0B01B9016D
:102A800090010C01CA01A0011124FF27591B99F0E4
:102A9000593F50F4503E68F11A16F040A22F232FF0
:102AA000342F4427585FF3CF469537952795A79540
:102AB000F0405395C9F77EF41F16BA0B620B730BE7
:102AC000840BBAF09150A1F0FF0FBB1F661F771F58
:102AD000881FC2F70EC0BA0F621F731F841F48F40D
:102AE000879577956795B795F7959E3F08F0B0CF96
:102AF0009395880F08F09927EE0F9795879508957D
:102B00000E9494150C9476140E946F1458F00E9441
:102B1000681440F029F45F3F29F00C945F145111C0
:102B20000C94AA140C9465140E94871468F39923DA
:102B3000B1F3552391F3951B550BBB27AA276217B9
:102B40007307840738F09F5F5F4F220F331F441FC6
:102B5000AA1FA9F335D00E2E3AF0E0E832D09150FA
:102B60005040E695001CCAF72BD0FE2F29D0660FE7
:102B7000771F881FBB1F261737074807AB07B0E82A
:102B800009F0BB0B802DBF01FF2793585F4F3AF030
:102B90009E3F510578F00C945F140C94AA145F3F8B
:102BA000E4F3983ED4F3869577956795B795F795B6
:102BB0009F5FC9F7880F911D9695879597F908959E
:102BC000E1E0660F771F881FBB1F6217730784073A
:102BD000BA0720F0621B730B840BBA0BEE1F88F749
:102BE000E09508950E94CE1308F48FEF089597FBA7
:102BF000072E16F4009407D077FD09D00E941A160C
:102C000007FC05D03EF4909581959F4F08957095EF
:102C100061957F4F0895EE0FFF1F881F8BBF0790B0
:102C2000F691E02D19940E940415B7FF0895821BB8
:102C3000930B0895AA1BBB1B51E107C0AA1FBB1F22
:102C4000A617B70710F0A61BB70B881F991F5A9538
:102C5000A9F780959095BC01CD0108950F931F931E
:102C6000CF93DF938230910510F482E090E0E09101
:102C70008A0AF0918B0A30E020E0B0E0A0E03097C3
:102C800099F42115310509F44AC0281B390B243069
:102C90003105D8F58A819B816115710589F1FB01A8
:102CA00093838283FE0111C040815181028113818F
:102CB00048175907E0F04817590799F4109761F041
:102CC00012960C93129713961C933296CF01DF91B4
:102CD000CF911F910F91089500938A0A10938B0A48
:102CE000F4CF2115310551F04217530738F0A901EF
:102CF000DB019A01BD01DF01F801C1CFEF01F9CF7E
:102D000090938B0A80938A0ACDCFFE01E20FF31FC6
:102D1000819391932250310939832883D7CF209111
:102D2000880A3091890A232B41F420911C033091A9
:102D30001D033093890A2093880A20911A03309149
:102D40001B032115310541F42DB73EB740911E03F9
:102D500050911F03241B350BE091880AF091890ADA
:102D6000E217F307A0F42E1B3F0B2817390778F062
:102D7000AC014E5F5F4F2417350748F04E0F5F1FC1
:102D80005093890A4093880A819391939FCFF0E0F2
:102D9000E0E09CCFCF93DF930097E9F0FC013297FE
:102DA00013821282A0918A0AB0918B0AED0130E061
:102DB00020E01097A1F420813181820F931F209190
:102DC000880A3091890A2817390709F061C0F09301
:102DD000890AE093880ADF91CF910895EA01CE171E
:102DE000DF07E8F54A815B819E0141155105B1F786
:102DF000E901FB83EA8349915991C40FD51FEC1770
:102E0000FD0761F4808191810296840F951FE9018D
:102E100099838883828193819B838A83F0E0E0E0B9
:102E200012968D919C9113970097B9F52D913C9135
:102E30001197CD010296820F931F2091880A30913D
:102E4000890A2817390739F6309751F510928B0AFD
:102E500010928A0AB093890AA093880ABCCFD383C0
:102E6000C28340815181840F951FC817D90761F42F
:102E70004E5F5F4F88819981480F591F518340836E
:102E80008A819B81938382832115310509F0B0CF1C
:102E9000F0938B0AE0938A0A9ECFFD01DC01C0CF3C
:102EA00013821282D7CF4F925F926F927F928F924E
:102EB0009F92AF92BF92CF92DF92EF92FF920F93C9
:102EC0001F93CF93DF938C01009799F4CB01DF918F
:102ED000CF911F910F91FF90EF90DF90CF90BF9017
:102EE000AF909F908F907F906F905F904F900C94D9
:102EF0002E16FC01E60FF71F9C0122503109E21744
:102F0000F30708F4AEC0D901CD91DC911197C61733
:102F1000D70720F1C530D10578F0CE010497861788
:102F2000970750F0C61BD70B2297C193D1936D938F
:102F30007C93CF010E94CA16C801DF91CF911F91E7
:102F40000F91FF90EF90DF90CF90BF90AF909F9048
:102F50008F907F906F905F904F9008955B01AC1AB7
:102F6000BD0A4C018C0E9D1EA0918A0AB0918B0A5D
:102F7000512C412CF12CE12C109731F58091880ACD
:102F80009091890A8815990509F05CC04616570684
:102F900008F058C080911A0390911B03009741F4E8
:102FA0008DB79EB740911E0350911F03841B950B54
:102FB000E817F90708F055C0F093890AE093880AEA
:102FC000F90171836083B8CF8D919C91119712960E
:102FD0006C90129713967C901397A815B90559F524
:102FE0006C0142E0C40ED11CCA14DB0420F1AC0118
:102FF0004A195B09DA011296159780F06282738292
:1030000051834083D9016D937C93E114F10471F0F5
:10301000D7011396FC93EE9312978ECF22968C0FC6
:103020009D1FF90191838083F301EFCFF0938B0A09
:10303000E0938A0A81CF4816590608F42C017D01D5
:10304000D3019ACFCB010E942E167C01009749F044
:10305000AE01B8010E943418C8010E94CA16870147
:103060006BCF10E000E068CFFB01DC0102C00190F3
:103070000D9241505040D8F70895FB01DC010190BA
:103080000D920020E1F7089511E0C7E3D1E000E0E0
:1030900006C0802FFE010E940B162196011DC83329
:1030A000D10780E00807A9F7F894FFCF7B00010360
:1030B000000100010100000000000000000000000D
:1030C00000000000000000000000010101010000FC
:1030D00000000000000000000000010000010000EE
:1030E00000000000000000000000010000010000DE
:1030F00000000000000000000000010101010000CC
:1031000000000000000000000000010000000000BE
:1031100000000000000000000000010000000000AE
:10312000000000000000000000000000000000009F
:103130000000000000FFFFFFFFFFFFFFFFFFFF0396
:103140000000000000000101010101010000000079
:103150000000000000000101010101010000000069
:103160000000010000000100010101010000010157
:103170000000010101000100010100010001000047
:10318000000000000000010000010001000100003B
:10319000000000010000010000000001000001012A
:1031A0000000000000000101010101010000000019
:1031B0000000000000000101010101010000000009
:1031C00000010100000000008C0A800018001600B9
:1031D00002000300040005000600070008000900C3
:1031E0000A000B000C000D00170019000000000081
:1031F0007503DF020C03C2033D031B032F030D0AFB
:1032000000352070756E746F732C207669646120B0
:103210006578747261005369677569656E746520BD
:103220006E6976656C0050554E54414A45530063B3
:10323000686F7175652070617274652066696E6172
:103240006C2064656C206176696F6E0063686F71D5
:103250007565207061727465206D6564696F2064A6
:10326000656C206176696F6E0063686F71756520AB
:1032700074726F6D70612064656C206176696F6E29
:10328000003030303030303030303030303030306E
:10329000303030303030303030303030303030302E
:1032A000303030303030303030303030303030301E
:1032B000303030303030303030303030303030300E
:1032C00030303030303030303030303030303030FE
:1032D00030303030303030303030303030303030EE
:1032E00030303030303030303030303030303030DE
:1032F00030303030300030303030303031313131FA
:1033000030303131303030303130303030303030BA
:1033100030303031313131313030303030313131A5
:103320003130313131313031313131303131313190
:103330003030303130303030303030313131313088
:103340003130303130313131313031313131303073
:103350003030303031303030313031313130313166
:103360003130313131303130303000303131313184
:103370003031303031303130303130303131303047
:10338000303030313030313030303031303030303A
:103390003030303030313031303031303030303129
:1033A0003030303031303031303031313131313016
:1033B0003130303130313030313031303031303106
:1033C00030303130303030303030313031303030FA
:1033D0003130303031303030313030303130300019
:1033E00030313030313031313131303130303130D5
:1033F00031303130313131303130303130303030C6
:1034000031303031313130313131313031303031B2
:1034100030313131313030303130303130303031A5
:103420003030303130313131313031303031303194
:103430003131313031303031303030303030303087
:103440003130303030313030303130303031303078
:103450003030313000303131313130313130303095
:103460003131313130303031303030303031303056
:103470003130313030313030303030303130303048
:103480003031303031303130303030303030313038
:103490003130303031313131313031313030303123
:1034A0003030313031303030303130303130303018
:1034B0003030303030313030303031303030313009
:1034C0003030313030303031300030313030303029
:1034D00031303130303130303130303031303030E7
:1034E00030303130303130313030313030303030D8
:1034F00030313030303031303031303130303030C8
:1035000031303031303031303030303030313031B6
:1035100030313030313030313031303030303130A6
:103520003031303030303030303130313030303197
:1035300030303031303030313030303130300030B8
:103540003130303030313030313031303031303076
:103550003031303030303030313130303131313164
:103560003030303030303131313130313131313053
:103570003131313130303131303030303130303044
:103580003030313031303031303131313130313033
:103590003030303131313130303030303031303026
:1035A0003031303131313031313130313131303110
:1035B000303030003031303030303030303030303A
:1035C00030303030303030303030303030303030FB
:1035D00030303030303030303030303030303030EB
:1035E00030303030303030303030303030303030DB
:1035F00030303031313131303030303030303030C7
:1036000030303030303030303030303030303030BA
:1036100030303030303030303030303030303030AA
:103620003030303030303030003173003273002EA3
:10363000004A5547415200337300455354414449B1
:0E36400053544943415300434F4E46494700FF
:020000040003F7
:10E000000D9489F10D94B2F10D94B2F10D94B2F129
:10E010000D94B2F10D94B2F10D94B2F10D94B2F1F0
:10E020000D94B2F10D94B2F10D94B2F10D94B2F1E0
:10E030000D94B2F10D94B2F10D94B2F10D94B2F1D0
:10E040000D94B2F10D94B2F10D94B2F10D94B2F1C0
:10E050000D94B2F10D94B2F10D94B2F10D94B2F1B0
:10E060000D94B2F10D94B2F10D94B2F10D94B2F1A0
:10E070000D94B2F10D94B2F10D94B2F10D94B2F190
:10E080000D94B2F10D94B2F10D94B2F10D94B2F180
:10E090000D94B2F10D94B2F10D94B2F10D94B2F170
:10E0A0000D94B2F10D94B2F10D94B2F10D94B2F160
:10E0B0000D94B2F10D94B2F10D94B2F10D94B2F150
:10E0C0000D94B2F10D94B2F10D94B2F10D94B2F140
:10E0D0000D94B2F10D94B2F10D94B2F10D94B2F130
:10E0E0000D94B2F141546D656761323536300041AF
:10E0F000726475696E6F206578706C6F72657220DE
:10E1000073746B3530305632206279204D4C530099
:10E11000426F6F746C6F616465723E004875683F52
:10E1200000436F6D70696C6564206F6E203D200048
:10E130004350552054797065202020203D20005FF9
:10E140005F4156525F415243485F5F3D2000415658
:10E1500052204C696243205665723D20004743437C
:10E160002056657273696F6E203D20004350552024
:10E1700049442020202020203D20004C6F7720663D
:10E18000757365202020203D20004869676820665F
:10E190007573652020203D200045787420667573D6
:10E1A00065202020203D20004C6F636B2066757336
:10E1B000652020203D20004D617220203720323024
:10E1C000313300312E362E3800342E332E350056A2
:10E1D00023202020414444522020206F7020636F70
:10E1E00064652020202020696E73747275637469E1
:10E1F0006F6E2061646472202020496E74657272B3
:10E20000757074006E6F20766563746F7200726A49
:10E210006D702020006A6D70200057686174207056
:10E220006F72743A00506F7274206E6F7420737541
:10E2300070706F72746564004D7573742062652030
:10E2400061206C6574746572002000577269747483
:10E25000696E672045450052656164696E672045B7
:10E26000450045452065727220636E743D00504F35
:10E27000525400303D5A65726F2061646472003FF1
:10E280003D43505520737461747300403D454550C3
:10E29000524F4D207465737400423D426C696E6B41
:10E2A000204C454400453D44756D70204545505215
:10E2B0004F4D00463D44756D7020464C415348001B
:10E2C000483D48656C70004C3D4C69737420492F83
:10E2D0004F20506F72747300513D51756974005234
:10E2E0003D44756D702052414D00563D73686F7707
:10E2F00020696E7465727275707420566563746FF0
:10E30000727300593D506F727420626C696E6B00BD
:10E310002A0011241FBECFEFD1E2DEBFCDBF01E046
:10E320000CBF12E0A0E0B2E0EEE1FDEF03E00BBFB6
:10E3300002C007900D92A030B107D9F712E0A0E01B
:10E34000B2E001C01D92AE30B107E1F70F9460F367
:10E350000D948DFE01E20EBF0FEF0DBF11241FBE05
:10E360000D9460F30D9400F020E030E040ED57E0B4
:10E3700005C0FA013197F1F72F5F3F4F2817390792
:10E38000C0F308959C01260F311DC901A0E0B0E043
:10E390002F5F3F4FABBFFC018791882361F08093D3
:10E3A000C6008091C00086FFFCCF8091C0008064D1
:10E3B0008093C000EACF08958DE08093C6008091DD
:10E3C000C00086FFFCCF8091C00080648093C000B5
:10E3D0008AE08093C6008091C00086FFFCCF8091C8
:10E3E000C00080648093C00008950F94C2F10F9420
:10E3F000DCF10895FC019081992359F09093C600B7
:10E400008091C00086FFFCCF8091C0008064809323
:10E41000C0003196992379F70895282F982F929567
:10E420009F70892F805D8A3308F0895F8093C600D2
:10E430008091C00086FFFCCF8091C00080648093F3
:10E44000C000822F8F70982F905D9A3308F0995FEB
:10E450009093C6008091C00086FFFCCF8091C000E1
:10E4600080648093C00008959C01FB01853691056E
:10E470001CF46330710594F0C90164E670E00F94F8
:10E480002EFE605D7F4F6093C6008091C00086FFC6
:10E49000FCCF8091C00080648093C0002B30310598
:10E4A00014F43297B4F0C90164E670E00F942EFEC4
:10E4B0006AE070E00F942EFE605D7F4F6093C600AF
:10E4C0008091C00086FFFCCF8091C0008064809363
:10E4D000C000C9016AE070E00F942EFEC0968093E0
:10E4E000C6008091C00086FFFCCF8091C000806490
:10E4F0008093C00008951F93182F8EE692EE60E07F
:10E500000F94C2F11093C6008091C00086FFFCCF2B
:10E510008091C00080648093C0000F94DCF11F9153
:10E5200008952F923F924F925F926F927F928F92B7
:10E530009F92AF92BF92CF92DF92EF92FF920F9392
:10E540001F93DF93CF93CDB7DEB762970FB6F894E2
:10E55000DEBF0FBECDBF382E622ECA01DB015C01CB
:10E560006D01772420E2222E2E010894411C511CBB
:10E570008BC081E0A81680E0B80681E0C80680E084
:10E58000D80628F0C601AA27BB270F940DF2BB2797
:10E59000AD2D9C2D8B2D0F940DF28A2D0F940DF225
:10E5A0002092C6008091C00086FFFCCF8091C00001
:10E5B00080648093C0009DE29093C6008091C0006B
:10E5C00086FFFCCF8091C00080648093C0002092C1
:10E5D000C6008091C00086FFFCCF8091C00080649F
:10E5E0008093C00019828601750188249924A1E0D6
:10E5F0003A1651F03A1620F0B2E03B1661F409C029
:10E600000BBFF701779007C0C7010F9477FE782EF4
:10E6100002C0F7017080872D0F940DF22092C60082
:10E620008091C00086FFFCCF8091C0008064809301
:10E63000C000872D8052F401EF70F0708F3520F408
:10E64000E40DF51D708204C0E40DF51D8EE280839B
:10E650000894E11CF11C011D111D0894811C911CE2
:10E6600090E18916910409F0C2CF80E190E0A0E02A
:10E67000B0E0A80EB91ECA1EDB1E198AC2010F9493
:10E68000FAF10F94DCF16A94662009F072CF629679
:10E690000FB6F894DEBF0FBECDBFCF91DF911F91B3
:10E6A0000F91FF90EF90DF90CF90BF90AF909F9031
:10E6B0008F907F906F905F904F903F902F90089534
:10E6C0002F923F924F925F926F927F928F929F9282
:10E6D000AF92BF92CF92DF92EF92FF920F931F9370
:10E6E000DF93CF93CDB7DEB7CD53D1400FB6F894BB
:10E6F000DEBF0FBECDBF01E20EBF0FEF0DBF94B75F
:10E70000F894A89514BE80916000886180936000A1
:10E7100010926000789493FF05C0E0910002F091A0
:10E7200001021995279A2F9A8091C00082608093E8
:10E73000C00080E18093C40088E18093C1000000A4
:10E74000EE24FF24870144E0A42EB12CCC24DD2448
:10E7500024C0C5010197F1F70894E11CF11C011DCB
:10E76000111D21E2E2162EE4F20620E0020720E06D
:10E77000120718F031E0C32ED12CC801B70127ECE5
:10E780003BE140E050E00F9441FE611571058105C9
:10E79000910519F485B1805885B98091C00087FD35
:10E7A00003C0C114D104A9F2A6014F5F5F4FC25E3E
:10E7B000DE4F59834883CE51D140C25EDE4F8881FF
:10E7C0009981CE51D140019711F00D9410FEC05D9A
:10E7D000DE4F19821882C053D14060E0C15DDE4F28
:10E7E0001882CF52D14088249924C35DDE4F19820C
:10E7F0001882CD52D140C05EDE4F188219821A8233
:10E800001B82C052D140CE5CDE4F188219821A8220
:10E810001B82C253D140EE24FF2487010BBFF701B6
:10E8200007911691C45CDE4F19830883CC53D14005
:10E830000D940BFEC25EDE4F28813981CE51D1404E
:10E840002130310509F52091C600C25EDE4F1982E4
:10E850001882CE51D14022C02F5F3F4F4F4F5F4FA4
:10E86000213082E138078AE7480780E0580780F0C6
:10E87000C45CDE4FE881F981CC53D140EF5FFF4F9C
:10E8800019F0EE27FF27099420E030E040E050E047
:10E890008091C00087FFE0CF2091C600C35DDE4FAE
:10E8A00048815981CD52D1404F5F5F4FC35DDE4FEC
:10E8B00059834883CD52D140213209F063C64A3092
:10E8C000510508F05FC60894811C911C53E0851621
:10E8D000910409F059C600E010E018C081E280936D
:10E8E000C6008091C00086FFFCCF8091C00080648C
:10E8F0008093C0002F5F3F4F2931310579F70F9486
:10E90000DCF10F5F1F4F0530110519F020E030E0FA
:10E91000E5CF10920A0210920B0210920C02109294
:10E920000D02109206021092070210920802109235
:10E930000902109202021092030210920402109235
:10E9400005028FEE90EE60E00F94F5F180E191EE1C
:10E9500060E00F94C2F18091C00087FFFCCF9091DE
:10E96000C600903608F09F759032B8F09093C600BC
:10E970008091C00086FFFCCF8091C00080648093AE
:10E98000C000A0E2A093C6008091C00086FFFCCF2B
:10E990008091C00080648093C000983409F4D7C18E
:10E9A0009934B8F4923409F459C1933458F490333B
:10E9B00019F1903308F4E3C59F33A1F1903409F0C5
:10E9C000DEC5BDC0953409F470C1963409F0D7C5D1
:10E9D00098C1923509F42BC2933538F49C3409F46C
:10E9E000F5C1913509F0CBC518C2963509F445C279
:10E9F000993509F0C4C567C483E792EE62E00F94CD
:10EA0000F5F110920602109207021092080210927D
:10EA1000090210920A0210920B0210920C0210923C
:10EA20000D0213C18FE792EE62E00F94F5F18FEEC5
:10EA300090EE60E00F94F5F181E291EE60E00F94CA
:10EA4000C2F187EB91EE60E00F94F5F180E391EE77
:10EA500060E00F94C2F184EE90EE60E00F94F5F167
:10EA60008FE391EE60E00F94C2F186E090E061E008
:10EA700070E00F9434F20F94DCF18DE591EE60E0DC
:10EA80000F94C2F189EC91EE60E00F94F5F18EE401
:10EA900091EE60E00F94C2F183EC91EE60E00F9490
:10EAA000F5F18CE691EE60E00F94C2F18EE10F94E7
:10EAB0000DF288E90F940DF281E00F940DF20F949E
:10EAC000DCF18BE791EE60E00F94C2F119E0E0E039
:10EAD000F0E010935700E4918E2F0F940DF20F94F5
:10EAE000DCF18AE891EE60E00F94C2F1E3E0F0E03F
:10EAF00010935700E4918E2F0F940DF20F94DCF1D8
:10EB000089E991EE60E00F94C2F1E2E0F0E0109349
:10EB10005700E4918E2F0F940DF20F94DCF188EAE8
:10EB200091EE60E00F94C2F1E1E0F0E01093570045
:10EB30001491812F0F940DF20F94DCF107CF8BE825
:10EB400092EE62E00F94F5F18BE492EE60E00F94A8
:10EB5000F5F10F94DCF100E010E019C0C8016F2D51
:10EB60000F947FFEFF2031F489E492EE60E00F9471
:10EB7000C2F10BC0F092C6008091C00086FFFCCFAE
:10EB80008091C00080648093C0000F5F1F4FC80158
:10EB900081519F41A0E0B0E0ABBFFC01F790BAE229
:10EBA000FB1621F0E2E000301E07C1F60F94DCF105
:10EBB0000F94DCF187E592EE60E00F94F5F10F948D
:10EBC000DCF1CC24DD2400E010E01EC0C8010F946D
:10EBD00077FEF82E882331F489E492EE60E00F94FA
:10EBE000C2F10BC08093C6008091C00086FFFCCFAD
:10EBF0008091C00080648093C000FE1419F00894D6
:10EC0000C11CD11C0F5F1F4FC80181519F41A0E063
:10EC1000B0E0ABBFFC01E790FAE2EF1621F022E092
:10EC20000030120799F60F94DCF10F94DCF182E6C4
:10EC300092EE60E00F94C2F1C60161E070E00F94C3
:10EC400034F20F94DCF10F94DCF110920202109276
:10EC50000302109204021092050278CE89E992EE26
:10EC600062E00F94F5F1279A2F9A16C02F9880E052
:10EC700090E0E0EDF7E03197F1F7019684369105E9
:10EC8000C1F72F9A80E090E0E0EDF7E03197F1F7DF
:10EC9000019684369105C1F78091C00087FFE6CFC9
:10ECA0008091C00087FFFCCF64C485EA92EE62E0E9
:10ECB0000F94F5F140910202509103026091040219
:10ECC0007091050281E020E10F9491F2809102029F
:10ECD00090910302A0910402B091050280509F4FD1
:10ECE000AF4FBF4F8093020290930302A0930402A0
:10ECF000B093050280509041A040B04008F426CE69
:10ED0000A4CF83EB92EE62E00F94F5F140910602FE
:10ED100050910702609108027091090280E020E1A1
:10ED20000F9491F28091060290910702A09108023F
:10ED3000B091090280509F4FAF4FBF4F80930602A2
:10ED400090930702A0930802B0930902FFCD80ECD4
:10ED500092EE62E00F94F5F183E792EE60E00F949B
:10ED6000F5F18FE792EE60E00F94F5F18BE892EE0B
:10ED700060E00F94F5F189E992EE60E00F94F5F10F
:10ED800085EA92EE60E00F94F5F183EB92EE60E09D
:10ED90000F94F5F180EC92EE60E00F94F5F187ECC2
:10EDA00092EE60E00F94F5F188ED92EE60E00F9442
:10EDB000F5F18FED92EE60E00F94F5F18AEE92EEB0
:10EDC00060E00F94F5F183E093EEBDCD87EC92EE19
:10EDD00062E00F94F5F181E40F947BF282E40F94EA
:10EDE0007BF283E40F947BF284E40F947BF285E45E
:10EDF0000F947BF286E40F947BF287E40F947BF20E
:10EE000088E40F947BF28AE40F947BF28BE40F94F6
:10EE10007BF28CE40F947BF299CD88ED92EE62E068
:10EE20000F94F5F1772473948824992409C48FED05
:10EE300092EE62E00F94F5F140910A0250910B02BC
:10EE400060910C0270910D0282E020E10F9491F22A
:10EE500080910A0290910B02A0910C02B0910D02D8
:10EE600080509F4FAF4FBF4F80930A0290930B0289
:10EE7000A0930C02B0930D0269CD8AEE92EE62E08F
:10EE80000F94F5F184EE90EE60E00F94F5F18FECC5
:10EE900091EE60E00F94F5F1662477244301CC5D98
:10EEA000DE4F19821882C452D140D401C301B695F5
:10EEB000A79597958795CA5DDE4F88839983AA8326
:10EEC000BB83C652D140CC5DDE4FA881B981C4520C
:10EED000D1401196CC5DDE4FB983A883C452D14096
:10EEE000CD0162E070E00F9434F2B0E2B093C6005E
:10EEF0008091C00086FFFCCF8091C0008064809329
:10EF0000C000EDE2E093C6008091C00086FFFCCF18
:10EF10008091C00080648093C000F0E2F093C6004E
:10EF20008091C00086FFFCCF8091C00080648093F8
:10EF3000C000CA5DDE4FE880F9800A811B81C6529D
:10EF4000D140BB27A12F902F8F2D0F940DF2CA5DBA
:10EF5000DE4F8881C652D1400F940DF2B0E2FB2EF5
:10EF6000F092C6008091C00086FFFCCF8091C00067
:10EF700080648093C0000DE30093C6008091C000C0
:10EF800086FFFCCF8091C00080648093C00010E2B7
:10EF90001093C6008091C00086FFFCCF8091C00016
:10EFA00080648093C0008BBEF3012791C65DDE4F65
:10EFB0002883CA52D140A22EBB24CC24DD2408943D
:10EFC000611C711C811C911C8BBEF3018791282E42
:10EFD0003324442455240894611C711C811C911C09
:10EFE0008BBEF3013791C55DDE4F3883CB52D140E4
:10EFF0000894611C711C811C911C8BBEF30147910C
:10F00000C45DDE4F4883CC52D140ADEFEA2EAFEF66
:10F01000FA2EAFEF0A2FAFEF1A2F6E0C7F1C801E57
:10F02000911E142D032DF22CEE24EA0CFB1C0C1D5A
:10F030001D1D0F940DF220E22093C6008091C000A8
:10F0400086FFFCCF8091C00080648093C000C65DC5
:10F05000DE4F8881CA52D1400F940DF230E23093D6
:10F06000C6008091C00086FFFCCF8091C000806404
:10F070008093C000C45DDE4F8881CC52D1400F9494
:10F080000DF240E24093C6008091C00086FFFCCFA5
:10F090008091C00080648093C000C55DDE4F888190
:10F0A000CB52D1400F940DF250E25093C6008091A4
:10F0B000C00086FFFCCF8091C00080648093C000B8
:10F0C0008FEFE8168FEFF80680E0080780E018075A
:10F0D00031F484E092EE60E00F94C2F1DFC0D80119
:10F0E000C7018070907CA070B0708050904CA040A0
:10F0F000B040D1F52FEF3FE340E050E0E222F322B1
:10F1000004231523CA5DDE4FA880B980CA80DB8046
:10F11000C652D140AE0CBF1CC01ED11EAA0CBB1CD7
:10F12000CC1CDD1C8EE092EE60E00F94C2F1BB2798
:10F13000A12F902F8F2D0F940DF28E2D0F940DF285
:10F1400030E23093C6008091C00086FFFCCF8091F2
:10F15000C00080648093C0004EE34093C60080915D
:10F16000C00086FFFCCF87C08EE09EEFA0E0B0E03D
:10F17000E822F9220A231B239CE0E91694E9F90608
:10F1800090E0090790E0190709F088C0C45DDE4FE0
:10F19000A881CC52D140EA2EFF2400E010E0102FCD
:10F1A0000F2DFE2CEE24C55DDE4FB881CB52D14031
:10F1B000EB0EF11C011D111DD601C501817090706F
:10F1C000A070B070DC0199278827E80EF91E0A1F8D
:10F1D0001B1F20EF30E040E050E0A222B322C42207
:10F1E000D52241E1AA0CBB1CCC1CDD1C4A95D1F7F1
:10F1F000EA0CFB1C0C1D1D1D81E090E0A0E0B0E0BE
:10F20000282239224A225B2235E1220C331C441C7D
:10F21000551C3A95D1F7E20CF31C041D151D57013E
:10F220006801AA0CBB1CCC1CDD1C85E192EE60E0E1
:10F230000F94C2F1C801AA27BB270F940DF2BB2778
:10F24000A12F902F8F2D0F940DF28E2D0F940DF274
:10F2500090E29093C6008091C00086FFFCCF809121
:10F26000C00080648093C000AEE3A093C60080918C
:10F27000C00086FFFCCF8091C00080648093C000F6
:10F28000C601AA27BB270F940DF2BB27AD2D9C2DDD
:10F290008B2D0F940DF28A2D0F940DF20F94DCF14B
:10F2A000CC5DDE4FE881F981C452D140F99709F471
:10F2B0004DCBF4E0EF2EF12C012D112D6E0C7F1CA7
:10F2C000801E911EF2CD83E093EE62E00F94F5F183
:10F2D0008AE192EE60E00F94C2F18091C00087FF56
:10F2E000FCCF1091C6001F751093C6008091C0001E
:10F2F00086FFFCCF8091C00080648093C0000F9493
:10F30000DCF1812F81548A3108F036C1163409F4BA
:10F3100095C0173490F4133409F44EC0143430F40B
:10F320001134F1F0123409F01DC130C0143409F465
:10F3300059C0153409F016C16BC01A3409F4C4C0A1
:10F340001B3438F4173409F48FC0183409F00AC19B
:10F35000A1C01B3409F4D2C01C3409F003C1E8C0B9
:10F360008FEF81B90DC082B1809582B980E090E0C5
:10F37000E0EDF7E03197F1F70196883C9105C1F790
:10F380008091C00087FFEFCF12B8EFC08FEF84B934
:10F390000DC085B1809585B980E090E0E0EDF7E0A3
:10F3A0003197F1F70196883C9105C1F78091C00033
:10F3B00087FFEFCF15B8D9C08FEF87B90DC088B1DF
:10F3C000809588B980E090E0E0EDF7E03197F1F7C3
:10F3D0000196883C9105C1F78091C00087FFEFCF6F
:10F3E00018B8C3C08FEF8AB90DC08BB180958BB9A7
:10F3F00080E090E0E0EDF7E03197F1F70196883C8E
:10F400009105C1F78091C00087FFEFCF1BB8ADC059
:10F410008FEF8DB90DC08EB180958EB980E090E0F0
:10F42000E0EDF7E03197F1F70196883C9105C1F7DF
:10F430008091C00087FFEFCF1EB897C08FEF80BBD1
:10F440000DC081B3809581BB80E090E0E0EDF7E0F6
:10F450003197F1F70196883C9105C1F78091C00082
:10F4600087FFEFCF11BA81C08FEF83BB0DC084B38C
:10F47000809584BB80E090E0E0EDF7E03197F1F714
:10F480000196883C9105C1F78091C00087FFEFCFBE
:10F4900014BA6BC08FEF809301010FC080910201FD
:10F4A00080958093020180E090E0E0EDF7E03197F5
:10F4B000F1F70196883C9105C1F78091C00087FF64
:10F4C000EDCF1092020151C08FEF809304010FC065
:10F4D0008091050180958093050180E090E0E0ED4A
:10F4E000F7E03197F1F70196883C9105C1F78091DB
:10F4F000C00087FFEDCF1092050137C08FEF8093DA
:10F5000007010FC08091080180958093080180E079
:10F5100090E0E0EDF7E03197F1F70196883C910536
:10F52000C1F78091C00087FFEDCF109208011DC088
:10F530008FEF80930A010FC080910B01809580931B
:10F540000B0180E090E0E0EDF7E03197F1F70196F4
:10F55000883C9105C1F78091C00087FFEDCF1092E4
:10F560000B0103C085E292EEEEC98091C00087FFD7
:10F57000FCCF8091C600EAC988E392EEE4C98CE131
:10F5800091EEE1C988249924933011F1943028F444
:10F59000913089F09230B8F408C0953061F195301F
:10F5A000F0F0963009F048C043C02B3109F042C951
:10F5B00091E06BE13FC96227C15DDE4F2883CF52E6
:10F5C000D14092E037C9B22FA0E0622793E032C960
:10F5D000822F90E0A82BB92B622794E02BC92E3004
:10F5E00009F039C3622795E0C05DDE4F19821882A9
:10F5F000C053D1401FC9E1E0F0E0EC0FFD1FC05D3A
:10F60000DE4F08811981C053D140E00FF11F2083E4
:10F610000F5F1F4FC05DDE4F19830883C053D14079
:10F6200062270A171B0709F005C9D80196E002C92D
:10F63000261709F010C303C0973009F0FBC87724E0
:10F640009981933109F412C19431C8F4963009F4C8
:10F65000D8C0973050F4923009F406C1933009F4C1
:10F660006DC0913009F059C253C0913109F477C08F
:10F67000923108F0BBC0903109F04FC2F5C098310B
:10F6800009F487C0993150F4953109F4EFC09531F0
:10F6900008F4C6C1963109F040C2C2C19A3109F4DA
:10F6A0006CC09A3108F491C09B3109F45BC09D3164
:10F6B00009F033C29D81903359F48F81882311F46E
:10F6C0009EE11CC0813011F091E018C098E916C08D
:10F6D000892F807591F0903539F4E0E0F0E089E011
:10F6E0008093570094910AC0983539F4E3E0F0E034
:10F6F00089E080935700949101C090E01A821B82A8
:10F700008D818C831D829E831F8227E030E009C299
:10F710001A8288E08B8381E48C8386E58D8382E581
:10F720008E8389E48F8383E5888780E589878FE5E9
:10F730008A8782E38B872BE030E0F3C18A818139AD
:10F7400041F0823941F0803911F48FE005C080E04A
:10F7500003C082E001C08AE01A828B8344C0772410
:10F76000739482C08D81882311F48EE12CC0813086
:10F7700011F081E028C088E926C01A82E1E0F0E0BB
:10F7800089E08093570084918B831C8224E030E0D1
:10F79000C8C18B81803589F48C81883039F4E2E0EE
:10F7A000F0E089E08093570084910DC0E0E0F0E044
:10F7B00089E080935700849106C0E3E0F0E089E09F
:10F7C0008093570084911A82DFCF8D81836C99E0FA
:10F7D000E1E0F0E0082E90935700E89507B600FCB2
:10F7E000FDCF1A821B8223E030E09BC180EC8A832C
:10F7F000CE5CDE4F188219821A821B82C253D1401E
:10F800008EC18A8190E0A0E0B0E0582F44273327D2
:10F8100022278B8190E0A0E0B0E0DC0199278827C7
:10F82000282B392B4A2B5B2B8D8190E0A0E0B0E098
:10F83000282B392B4A2B5B2B8C8190E0A0E0B0E089
:10F84000BA2FA92F982F8827282B392B4A2B5B2BCF
:10F85000220F331F441F551FC05EDE4F288339839C
:10F860004A835B83C052D1401A8259C13A81C95C34
:10F87000DE4F3883C753D140CA5CDE4F1882C6536F
:10F88000D1408B81C82EDD24CA5CDE4F488159816E
:10F89000C653D140C42AD52A933109F082C0CE5C28
:10F8A000DE4F88819981AA81BB81C253D1408050AB
:10F8B000904CA340B04030F583E0CE5CDE4FE88052
:10F8C000F9800A811B81C253D140F70100935B008C
:10F8D00080935700E89507B600FCFDCFCE5CDE4F65
:10F8E000088119812A813B81C253D14000501F4FAA
:10F8F0002F4F3F4FCE5CDE4F088319832A833B8313
:10F90000C253D140C05EDE4F488159816A817B81FC
:10F91000C052D140DE011B9631E08C9111962C91A2
:10F9200011971296C75CDE4F2883C953D140C85C3B
:10F93000DE4F1882C853D14090E0C85CDE4FE881AA
:10F94000F981C853D1408E2B9F2B0C01FA01609393
:10F950005B0030935700E89511244E5F5F4F6F4F67
:10F960007F4F0EEFE02E0FEFF02ECE0CDF1CC114F8
:10F97000D10499F685E0C05EDE4F088119812A81A5
:10F980003B81C052D140F80120935B008093570027
:10F99000E89507B600FCFDCF81E180935700E8951C
:10F9A00035C0C05EDE4F88819981AA81BB81C0527B
:10F9B000D140B695A795979587957C018601ABE0D8
:10F9C000AA2EB12CAC0EBD1E0BC0D5016D915D01F0
:10F9D000C7010F947FFE0894E11CF11C01501040F8
:10F9E0000115110591F7A60160E070E0440F551F65
:10F9F000661F771FC05EDE4FE880F9800A811B8199
:10FA0000C052D1404E0D5F1D601F711F1A82C05E33
:10FA1000DE4F488359836A837B83C052D1407FC0C5
:10FA2000FA80C55CDE4FF882CB53D140C65CDE4F16
:10FA30001882CA53D1408B81C82EDD24C65CDE4FAC
:10FA400008811981CA53D140C02AD12A1A828981DA
:10FA5000BE016D5F7F4F843121F59601C05EDE4FA0
:10FA6000E880F9800A811B81C052D1400BBFF701A9
:10FA700087919691DB018C9311969C936E5F7F4FDB
:10FA8000D801C7010296A11DB11DC05EDE4F88835B
:10FA90009983AA83BB83C052D14022503040F1F6F3
:10FAA00036C0C05EDE4F288139814A815B81C052F9
:10FAB000D1400894C108D108760100E010E0089414
:10FAC000C11CD11C0894E11CF11C011D111DE20E8A
:10FAD000F31E041F151F21BDBB27A52F942F832FB5
:10FAE00082BD2F5F3F4F4F4F5F4FF89A80B5DB01CC
:10FAF0008D93BD012E153F054007510761F7C05E8C
:10FB0000DE4F288339834A835B83C052D1409601FC
:10FB10002D5F3F4FFB01108204C080EC8A8322E0FE
:10FB200030E08BE18093C6008091C00086FFFCCF5F
:10FB30008091C00080648093C000C15DDE4FF88179
:10FB4000CF52D140F093C6008091C00086FFFCCF19
:10FB50008091C00080648093C000432F3093C60022
:10FB60008091C00086FFFCCF8091C00080648093AC
:10FB7000C000922F2093C6008091C00086FFFCCF6A
:10FB80008091C00080648093C0008EE08093C600A6
:10FB90008091C00086FFFCCF8091C000806480937C
:10FBA000C00065E1C15DDE4FE880CF52D1406E25D7
:10FBB00069276427FE01319610C090819093C6009A
:10FBC0008091C00086FFFCCF31968091C000806498
:10FBD0008093C0006927215030402115310569F715
:10FBE0006093C6008091C00086FFFCCF8091C0006A
:10FBF00080648093C00085B1805885B9772081F4F6
:10FC0000C15DDE4F0881CF52D1400F5FC15DDE4F35
:10FC10000883CF52D14090E0A0E0B0E00D941AF4F8
:10FC200027982F9880E090E020ED37E0F901319798
:10FC3000F1F7019684369105C9F700008091C00064
:10FC40008D7F8093C00081E180935700E895EE2777
:10FC5000FF270994FFCF90E00D941AF497FB092E2B
:10FC600007260AD077FD04D02ED006D000201AF443
:10FC7000709561957F4F0895F6F7909581959F4F08
:10FC80000895A1E21A2EAA1BBB1BFD010DC0AA1FDD
:10FC9000BB1FEE1FFF1FA217B307E407F50720F0F5
:10FCA000A21BB30BE40BF50B661F771F881F991F70
:10FCB0001A9469F760957095809590959B01AC01B9
:10FCC000BD01CF010895AA1BBB1B51E107C0AA1FAC
:10FCD000BB1FA617B70710F0A61BB70B881F991FED
:10FCE0005A95A9F780959095BC01CD010895F99991
:10FCF000FECF92BD81BDF89A992780B50895262F31
:10FD0000F999FECF1FBA92BD81BD20BD0FB6F89400
:0EFD1000FA9AF99A0FBE01960895F894FFCF63
:00000001FF
