:100000000C9435010C9466010C9466010C94660105
:100010000C9466010C9466010C9466010C946601C4
:100020000C9466010C9466010C9466010C946601B4
:100030000C9466010C9466010C9466010C946601A4
:100040000C9466010C9466010C9466010C94660194
:100050000C9466010C9466010C9466010C942E05B8
:100060000C9466010C94A2050C9478050C9466011E
:100070000C9466010C9466010C9466010C94660164
:100080000C9466010C9466010C9466010C94660154
:100090000C9466010C9466010C9466010C94660144
:1000A0000C9466010C9466010C9466010C94660134
:1000B0000C9466010C9466010C9466010C94660124
:1000C0000C9466010C9466010C9466010C94660114
:1000D0000C9466010C9466010C9466010C94660104
:1000E0000C9466010C9490010C94AB010C944F039A
:1000F0000C94B9010C94B9020C94C1010C949B01AD
:100100000C9409030C94AF010C94C6010C949C034D
:100110000C9486010C94D8050C94C7010C9494019E
:100120000C94F5020C94A5010C94A1010C94E60228
:100130000C948C010C94BD010C94CB010C9417030E
:100140000C9498010C94B3010000210024002700B6
:100150002A002D00300033000101000004010701D6
:100160000A0100002200250028002B002E0031008B
:10017000340002010000050108010B01000020000D
:100180002300260029002C002F003200000100006F
:10019000030106010901050505050705080808080A
:1001A000020202020A0A080804040404010101010F
:1001B000010101010303030303030303040707070A
:1001C0000C0C0C0C0C0C0C0C0202020206060606AF
:1001D000060606060B0B0B0B0B0B0B0B010210207C
:1001E000200808102040102040800201020108046D
:1001F0000201010204081020408080402010080401
:100200000201800402018040201008040201080459
:10021000020101020408102040800102040810209D
:10022000408000000A0B02090C0D0E0807030401B0
:1002300000000000000000000000000000000000BE
:10024000000000000000000000000000000012118B
:10025000100000000000000000000000000000008E
:100260000000000000000000D80511241FBECFEFE1
:10027000D1E2DEBFCDBF00E00CBF13E0A0E0B2E0F2
:10028000E0E2F1E100E00BBF02C007900D92AA3D51
:10029000B107D9F724E0AAEDB3E001C01D92AA3D51
:1002A000B207E1F711E0C5E3D1E000E006C0219715
:1002B0000109802FFE010E948608C433D10780E027
:1002C0000807A9F70E948C060C948E080C94000075
:1002D0008150823108F05AC0E82FF0E08827EC58AE
:1002E000FE4F8F4F0C9486089401980186018C0173
:1002F0009001C6019B01A101A501AB01AF01B301B2
:10030000B901BD01C601C101C701CB0180918000C7
:100310008F77809380000895809180008F7DF9CF42
:1003200080918000877FF5CF84B58F7784BD089555
:1003300084B58F7DFBCF8091B0008F778093B00024
:1003400008958091B0008F7DF9CF809190008F77D4
:10035000809390000895809190008F7DF9CF8091D7
:100360009000877FF5CF8091A0008F778093A000C9
:1003700008958091A0008F7DF9CF8091A000877FA4
:10038000F5CF809120018F7780932001089580918F
:1003900020018F7DF9CF80912001877FF5CFCF930A
:1003A000DF93282F30E0F901EE5DFD4F8491F901D4
:1003B000E452FE4FD491F901EA56FE4FC491CC238A
:1003C000A1F081110E946801EC2FF0E0EE0FFF1FF9
:1003D000E458FE4FA591B491EC91ED2381E090E0BB
:1003E00009F480E0DF91CF91089580E090E0FACFAA
:1003F0001F93CF93DF93282F30E0F901EE5DFD4F7F
:100400008491F901E452FE4FD491F901EA56FE4F6E
:10041000C491CC23A9F0162F81110E946801EC2F02
:10042000F0E0EE0FFF1FEE59FE4FA591B4918FB78C
:10043000F894EC91111108C0D095DE23DC938FBFA6
:10044000DF91CF911F910895DE2BF8CFCF93DF93EB
:1004500090E0FC01E452FE4F24918A569E4FFC012D
:1004600084918823C9F090E0880F991FFC01E85B14
:10047000FE4FA591B491FC01EE59FE4FC591D49168
:1004800061110DC09FB7F8948C91209582238C93B5
:100490008881282328839FBFDF91CF910895623000
:1004A00051F49FB7F8943C91822F809583238C93CD
:1004B000E8812E2BEFCF8FB7F894EC912E2B2C9355
:1004C0008FBFEACF3FB7F8948091E1039091E203A8
:1004D000A091E303B091E40326B5A89B05C02F3F8C
:1004E00019F00196A11DB11D3FBFBA2FA92F982F5A
:1004F0008827BC01CD01620F711D811D911D42E055
:10050000660F771F881F991F4A95D1F708958F921C
:100510009F92AF92BF92CF92DF92EF92FF924B01E8
:100520005C010E9462026B017C010E9462026C19F4
:100530007D098E099F09683E734081059105A8F3E6
:1005400021E0821A9108A108B10888EEC80E83E064
:10055000D81EE11CF11C81149104A104B10429F7F7
:10056000FF90EF90DF90CF90BF90AF909F908F90D3
:100570000895AF92BF92CF92DF92EF92FF920F93C6
:100580001F93CF93DF936C017B018B01040F151F29
:10059000EB015E01AE18BF08C017D10759F0699191
:1005A000D601ED91FC910190F081E02DC6011995E5
:1005B000892B79F7C501DF91CF911F910F91FF90A2
:1005C000EF90DF90CF90BF90AF900895FC01538DD6
:1005D000448D252F30E0842F90E0821B930B54171D
:1005E00010F0CF96089501970895FC01918D828DAA
:1005F000981761F0A28DAE0FBF2FB11D5D968C9143
:10060000928D9F5F9F73928F90E008958FEF9FEF81
:100610000895FC01918D828D981731F0828DE80F3D
:10062000F11D858D90E008958FEF9FEF0895FC01F7
:10063000918D228D892F90E0805C9F4F821B9109C4
:100640008F739927089585EE93E00E94170321E0A8
:10065000892B09F420E0822F0895FC01A48DA80FB6
:10066000B92FB11DA35ABF4F2C91848D90E00196F4
:100670008F739927848FA689B7892C93A089B18914
:100680008C91837080648C93938D848D981306C0B5
:100690000288F389E02D80818F7D80830895EF9219
:1006A000FF920F931F93CF93DF93EC0181E0888F2C
:1006B0009B8D8C8D98131AC0E889F989808185FFFC
:1006C00015C09FB7F894EE89FF896083E889F9899E
:1006D00080818370806480839FBF81E090E0DF91A0
:1006E000CF911F910F91FF90EF900895F62E0B8DF3
:1006F00010E00F5F1F4F0F731127E02E8C8D8E11AE
:100700000CC00FB607FCFACFE889F989808185FF14
:10071000F5CFCE010E942D03F1CFEB8DEC0FFD2F15
:10072000F11DE35AFF4FF0829FB7F8940B8FEA89CF
:10073000FB8980818062CFCFCF93DF93EC01888DDE
:100740008823B9F0AA89BB89E889F9898C9185FD4C
:1007500003C0808186FD0DC00FB607FCF7CF8C91DA
:1007600085FFF2CF808185FFEDCFCE010E942D0362
:10077000E9CFDF91CF91089580E090E0892B29F0B7
:100780000E94230381110E94000080E090E0892BE9
:1007900049F080E090E0892B29F00E94000081114F
:1007A0000E94000080E090E0892B49F080E090E01A
:1007B000892B29F00E94000081110E94000080E036
:1007C00090E0892B49F080E090E0892B29F00E948D
:1007D000000081110C9400000895CF92DF92EF92F7
:1007E000FF920F931F93CF93DF931F921F92CDB76A
:1007F000DEB769834A83880F991F0091D80410914E
:10080000D904000F111FE2E8F4E09F0122583440A0
:100810002017310714F41192F8CF2981FC01EE570B
:10082000FB4F21838A81808360E08091D6040E94FF
:10083000F8011016110604F501501109F801EE57E0
:10084000FB4FE080D090D404C090D20488E0F82E12
:100850006E2D661F6627661F8C2D0E94F801EE0C18
:1008600061E08D2D0E94F80160E08D2D0E94F8015D
:10087000FA94F110EDCFDDCF61E08091D6040F90B6
:100880000F90DF91CF911F910F91FF90EF90DF902C
:10089000CF900C94F801EF92FF920F931F93CF9398
:1008A0007C018C0183E0000F111F8A95E1F70E5641
:1008B0001B4FC1E0F80111928F0140E06C2FC7017E
:1008C0000E94ED03CF5FC930A9F7CF911F910F911F
:1008D000FF90EF9008952F923F924F925F926F9208
:1008E0007F928F929F92AF92BF92CF92DF92EF92C0
:1008F000FF920F931F93CF93DF935C01C2E8D4E084
:100900006C019924939440E8E42EF12C10E000E06F
:100910008091D8049091D90418161906BCF4C70127
:10092000002E02C0959587950A94E2F72889F60172
:10093000E00FF11F3081313009F06CC0822B888BC1
:100940004889692D90E080E00E94ED030F5F1F4F02
:1009500008301105E9F62196939480E1C80ED11C68
:10096000E9E09E12D3CF93E0E92EF12C23EC422E46
:10097000512C3BE2632E31E1732E8501005F1F4F46
:10098000C0E8D3E04801F8E08F1A910880E9C82E4A
:1009900083E0D82EF40181914F01813009F03DC0F0
:1009A000288060E0822D0E94F801F601308061E02D
:1009B000832D0E94F801C3010197F1F761E0822DB8
:1009C0000E94F80160E0832D0E94F801F2E0CF0E52
:1009D000D11C08151905F1F6005F1F4F229683E020
:1009E000C039D80779F6E1E0EE1AF10831F6DF9167
:1009F000CF911F910F91FF90EF90DF90CF90BF901C
:100A0000AF909F908F907F906F905F904F903F90AE
:100A10002F9008958095822392CFC2010197F1F71C
:100A2000D5CFCF93DF93FC0101900020E9F73197F8
:100A3000AF01481B590BBC0185EE93E00E94B9023F
:100A4000EC0142E050E062EB73E085EE93E00E943F
:100A5000B9028C0F9D1FDF91CF9108951F920F92C5
:100A60000FB60F9211242F933F938F939F93AF93C1
:100A7000BF938091DD039091DE03A091DF03B091DD
:100A8000E0033091DC0323E0230F2D3758F5019666
:100A9000A11DB11D2093DC038093DD039093DE0341
:100AA000A093DF03B093E0038091E1039091E20310
:100AB000A091E303B091E4030196A11DB11D8093C1
:100AC000E1039093E203A093E303B093E403BF91A7
:100AD000AF919F918F913F912F910F900FBE0F90EB
:100AE0001F90189526E8230F0296A11DB11DD2CFA5
:100AF0001F920F920FB60F9211240BB60F922F93E5
:100B00003F934F935F936F937F938F939F93AF9395
:100B1000BF93EF93FF9385EE93E00E942D03FF9127
:100B2000EF91BF91AF919F918F917F916F915F9165
:100B30004F913F912F910F900BBE0F900FBE0F90D2
:100B40001F9018951F920F920FB60F9211240BB69B
:100B50000F922F938F939F93EF93FF93E091F50361
:100B6000F091F6038081E091FB03F091FC0382FD9C
:100B70001DC090818091FE038F5F8F732091FF03D2
:100B8000821741F0E091FE03F0E0EB51FC4F958FAE
:100B90008093FE03FF91EF919F918F912F910F9082
:100BA0000BBE0F900FBE0F901F9018958081F2CF53
:100BB000CF93DF931092E8031092E70388EE93E05F
:100BC000A0E0B0E08093E9039093EA03A093EB03E5
:100BD000B093EC0384EA93E09093E6038093E503FB
:100BE00085EC90E09093F2038093F10384EC90E025
:100BF0009093F4038093F30380EC90E09093F603DA
:100C00008093F50381EC90E09093F8038093F703D1
:100C100082EC90E09093FA038093F90386EC90E0E5
:100C20009093FC038093FB031092FE031092FF034A
:100C30001092000410920104C3E3D0E0D093D304D7
:100C4000C093D20485E390E09093D5048093D404BC
:100C500081E390E09093D7048093D60481E090E004
:100C60009093D9048093D80461E083E30E94260224
:100C700061E08091D4040E94260261E08091D60454
:100C80000E94260261E08091D6040E94F801D09370
:100C9000D304C093D204E2E9F4E0119284E0E23D8F
:100CA000F807D9F7D0E0C0E08091D8049091D9043A
:100CB000C817D90774F540E06FE0CE010E94ED033C
:100CC0008091D8049091D904C817D9072CF447E033
:100CD0006BE0CE010E94ED0340E069E0CE010E948E
:100CE000ED038091D8049091D904C817D9071CF45A
:100CF000CE010E944B048091D8049091D904C8176A
:100D0000D9072CF440E06CE0CE010E94ED0321965F
:100D1000CBCFDF91CF910895789484B5826084BD64
:100D200084B5816084BD85B5826085BD85B58160EF
:100D300085BD80916E00816080936E00109281006D
:100D40008091810082608093810080918100816028
:100D500080938100809180008160809380008091E9
:100D6000B10084608093B1008091B0008160809375
:100D7000B0008091910082608093910080919100F9
:100D800081608093910080919000816080939000B9
:100D90008091A10082608093A1008091A100816078
:100DA0008093A1008091A00081608093A000809139
:100DB00021018260809321018091210181608093D3
:100DC00021018091200181608093200180917A002F
:100DD000846080937A0080917A00826080937A00A8
:100DE00080917A00816080937A0080917A00806897
:100DF00080937A001092C100E091F503F091F60320
:100E000082E08083E091F103F091F2031082E0919F
:100E1000F303F091F4038FEC80831092FD03E091D3
:100E2000F903F091FA0386E08083E091F703F091F3
:100E3000F803808180618083E091F703F091F803EB
:100E4000808188608083E091F703F091F8038081CE
:100E500080688083E091F703F091F80380818F7DB3
:100E6000808350E9C52E53E0D52E8601F80180819C
:100E70000E5F1F4F61E00E942602F3E0003A1F0759
:100E8000A9F740E8E42E43E0F42EE701888122969A
:100E900061E00E94260283E0C039D807B9F7F60165
:100EA0008081F2E0CF0ED11C60E00E94F8010C15A9
:100EB0001D05A9F7F7018081F2E0EF0EF11C61E05A
:100EC0000E94F801CE15DF05A9F78091D804909112
:100ED000D9041816190634F441E06CE090E080E083
:100EE0000E94ED038091D8049091D9041816190638
:100EF00034F44FE06AE090E080E00E94ED038091DE
:100F0000D8049091D9041816190624F490E080E0D2
:100F10000E944B0462E084E30E94260262E082E3C6
:100F20000E94260262E080E30E94260260E08EE2D8
:100F30000E94260282E0282E312C92E0492E512C6C
:100F4000C1E0D0E024E0622E712C33E0832E912C9E
:100F500084E30E94CF015C018EE20E94CF016C010C
:100F600082E30E94CF017C0180E30E94CF018C01CB
:100F70008091DA039091DB038230910509F461C01E
:100F800038F4009771F00197C1F10E94BC03E0CFE3
:100F90008330910509F4AEC00497B9F783ED93E06F
:100FA000ABC080E093E00E946B0480E30E94CF011D
:100FB000892B59F785EB93E00E94110568EE73E0E9
:100FC00080E090E00E94870280E30E94CF01892B9D
:100FD000E1F688EB93E00E94110568EE73E080E093
:100FE00090E00E94870280E30E94CF01892B69F67E
:100FF000D093DB03C093DA03C8CF80E892E00E946D
:101000006B048BEB93E00E941105AB2859F43092EE
:10101000DB032092DA0364E670E080E090E00E9457
:101020008702B3CFCD2829F49092DB038092DA03B4
:10103000F2CFEF2809F0A9CF7092DB036092DA03B8
:10104000EACF8DEB93E00E941105012B09F09DCFB3
:1010500085E090E09093DB038093DA0364E670E030
:1010600080E090E00E9487028091DA039091DB0398
:10107000059789F680E092E00E946B0480E30E946D
:10108000CF01892B89F768EE73E080E090E00E9441
:10109000870285EB93E00E94110580E30E94CF0157
:1010A000892B11F768EE73E080E090E00E948702E0
:1010B00088EB93E00E9411055092DB034092DA0323
:1010C00080E30E94CF01892B79F668EE73E080E01F
:1010D00090E00E94870283EC93E00E94110580E378
:1010E0000E94CF01892B09F0BFCFD093DB03C093BF
:1010F000DA03BACF86EC93E00E941105012B09F0C8
:1011000044CFD093DB03C093DA0385CFEE0FFF1FEC
:10111000881F8BBF0790F691E02D1994F894FFCFAC
:1011200000000000000000000000000000000000BF
:1011300000000000000101010100000000000000AB
:10114000000000000001000001000000000000009D
:10115000000000000001000001000000000000008D
:10116000000000000001010101000000000000007B
:10117000000000000001000000000000000000006E
:10118000000000000001000000000000000000005E
:10119000000000000000000000000000000000004F
:1011A0000000000000010101010101000000000039
:1011B0000000000000010101010101000000000029
:1011C0000001000000010001010101000001010017
:1011D0000001010100010001010001000100000007
:1011E00000000000000100000100010001000000FB
:1011F00000000100000100000000010000010100EA
:1012000000000000000101010101010000000000D8
:1012100000000000000101010101010000000000C8
:1012200000000000000000000000000000000000BE
:1012300000000000000000010000000000000000AD
:10124000000000000000000100000000000000009D
:10125000000000000000000100000000000000008D
:10126000000000000000000100000000000000007D
:10127000000000000000000100000000000000006D
:10128000000000000001000100010000000000005B
:10129000000000000000000000000000000000004E
:1012A00018001600020003000400050006000700F5
:1012B000080009000A000B000C000D0017001900BF
:1012C000000000004F03B902E6029C031703F50279
:1012D00009030D0A003173003273002E004A55478E
:1012E00041520033730045535441444953544943D8
:0A12F000415300434F4E46494700AA
:00000001FF
