:100000000C9438010C9469010C9469010C946901F9
:100010000C9469010C9469010C9469010C946901B8
:100020000C9469010C9469010C9469010C946901A8
:100030000C9469010C9469010C9469010C94690198
:100040000C9469010C9469010C9469010C94690188
:100050000C9469010C9469010C9469010C947A0563
:100060000C9469010C94EE050C94C4050C94690180
:100070000C9469010C9469010C9469010C94690158
:100080000C9469010C9469010C9469010C94690148
:100090000C9469010C9469010C9469010C94690138
:1000A0000C9469010C9469010C9469010C94690128
:1000B0000C9469010C9469010C9469010C94690118
:1000C0000C9469010C9469010C9469010C94690108
:1000D0000C9469010C9469010C9469010C946901F8
:1000E0000C9469010C949B010C94B2010C9497013F
:1000F0000C94F8020C94AE010C9489010C940C033E
:100100000C94C9010C9493010C94E9020C948F0196
:100110000C949E010C941A030C94CA010C94B60121
:100120000C9418090C94A8010C94A4010C94BC0222
:100130000C9452030C94BC010C94CE010C94C0019D
:100140000C949F030C94C4010C942406000021001D
:10015000240027002A002D00300033000101000098
:10016000040107010A0100002200250028002B00DD
:100170002E003100340002010000050108010B01CE
:10018000000020002300260029002C002F00320050
:100190000001000003010601090105050505070529
:1001A00008080808020202020A0A080804040404F3
:1001B000010101010101010103030303030303031F
:1001C000040707070C0C0C0C0C0C0C0C02020202AE
:1001D00006060606060606060B0B0B0B0B0B0B0B97
:1001E0000102102020080810204010204080020149
:1001F000020108040201010204081020408080402E
:10020000201008040201800402018040201008042C
:1002100002010804020101020408102040800102CA
:1002200004081020408000000A0B02090C0D0E0883
:1002300007030401000000000000000000000000AF
:1002400000000000000000000000000000000000AE
:10025000000012111000000000000000000000006B
:100260000000000000000000000000002406180943
:1002700011241FBECFEFD1E2DEBFCDBF00E00CBF27
:1002800017E0A0E0B2E0E4EBF6E100E00BBF02C053
:1002900007900D92A838B107D9F728E0A8E8B7E091
:1002A00001C01D92AC3BB207E1F711E0C7E3D1E01A
:1002B00000E006C021970109802FFE010E942A0953
:1002C000C633D10780E00807A9F70E941E070C94E7
:1002D000480B0C9400008150823108F05AC0E82F7E
:1002E000F0E08827E958FE4F8F4F0C942A099701B8
:1002F0009B0189018F019301C9019E01A401A801FD
:10030000AE01B201B601BC01C001C901C401CA01FC
:10031000CE01809180008F77809380000895809136
:1003200080008F7DF9CF80918000877FF5CF84B5E5
:100330008F7784BD089584B58F7DFBCF8091B00009
:100340008F778093B00008958091B0008F7DF9CFB2
:10035000809190008F778093900008958091900015
:100360008F7DF9CF80919000877FF5CF8091A0009D
:100370008F778093A00008958091A0008F7DF9CFA2
:100380008091A000877FF5CF809120018F778093A7
:1003900020010895809120018F7DF9CF8091200167
:1003A000877FF5CFCF93DF93282F30E0F901EA5D07
:1003B000FD4F8491F901E052FE4FD491F901E656C8
:1003C000FE4FC491CC23A1F081110E946B01EC2F50
:1003D000F0E0EE0FFF1FE058FE4FA591B491EC91B5
:1003E000ED2381E090E009F480E0DF91CF91089562
:1003F00080E090E0FACF1F93CF93DF93282F30E077
:10040000F901EA5DFD4F8491F901E052FE4FD4916C
:10041000F901E656FE4FC491CC23A9F0162F8111A5
:100420000E946B01EC2FF0E0EE0FFF1FEA59FE4F28
:10043000A591B4918FB7F894EC91111108C0D095A3
:10044000DE23DC938FBFDF91CF911F910895DE2BC8
:10045000F8CFCF93DF9390E0FC01E052FE4F249160
:1004600086569E4FFC0184918823C9F090E0880F46
:10047000991FFC01E45BFE4FA591B491FC01EA5980
:10048000FE4FC591D49161110DC09FB7F8948C9126
:10049000209582238C938881282328839FBFDF9116
:1004A000CF910895623051F49FB7F8943C91822F18
:1004B000809583238C93E8812E2BEFCF8FB7F89410
:1004C000EC912E2B2C938FBFEACF3FB7F8948091FD
:1004D0008B0790918C07A0918D07B0918E0726B560
:1004E000A89B05C02F3F19F00196A11DB11D3FBF6C
:1004F000BA2FA92F982F8827BC01CD01620F711D3B
:10050000811D911D42E0660F771F881F991F4A9534
:10051000D1F708958F929F92AF92BF92CF92DF92C0
:10052000EF92FF924B015C010E9465026B017C011E
:100530000E9465026C197D098E099F09683E73400F
:1005400081059105A8F321E0821A9108A108B1085C
:1005500088EEC80E83E0D81EE11CF11C81149104C2
:10056000A104B10429F7FF90EF90DF90CF90BF90E6
:10057000AF909F908F900895AF92BF92CF92DF92ED
:10058000EF92FF920F931F93CF93DF936C017B0148
:100590008B01040F151FEB015E01AE18BF08C017D9
:1005A000D10759F06991D601ED91FC910190F0814C
:1005B000E02DC6011995892B79F7C501DF91CF91FF
:1005C0001F910F91FF90EF90DF90CF90BF90AF9071
:1005D0000895FC01538D448D252F30E0842F90E049
:1005E000821B930B541710F0CF960895019708952E
:1005F000FC01918D828D981761F0A28DAE0FBF2FF7
:10060000B11D5D968C91928D9F5F9F73928F90E04C
:1006100008958FEF9FEF0895FC01918D828D9817BB
:1006200031F0828DE80FF11D858D90E008958FEFF8
:100630009FEF0895FC01918D228D892F90E0805CC1
:100640009F4F821B91098F73992708958FE897E038
:100650000E941A0321E0892B09F420E0822F0895DB
:10066000FC01A48DA80FB92FB11DA35ABF4F2C9127
:10067000848D90E001968F739927848FA689B7891E
:100680002C93A089B1898C91837080648C93938D15
:10069000848D981306C00288F389E02D80818F7DB8
:1006A00080830895EF92FF920F931F93CF93DF9370
:1006B000EC0181E0888F9B8D8C8D98131AC0E8899E
:1006C000F989808185FF15C09FB7F894EE89FF896D
:1006D0006083E889F98980818370806480839FBF0B
:1006E00081E090E0DF91CF911F910F91FF90EF900B
:1006F0000895F62E0B8D10E00F5F1F4F0F7311271B
:10070000E02E8C8D8E110CC00FB607FCFACFE88955
:10071000F989808185FFF5CFCE010E943003F1CFAA
:10072000EB8DEC0FFD2FF11DE35AFF4FF0829FB7C9
:10073000F8940B8FEA89FB8980818062CFCFCF93B9
:10074000DF93EC01888D8823B9F0AA89BB89E889F9
:10075000F9898C9185FD03C0808186FD0DC00FB69F
:1007600007FCF7CF8C9185FFF2CF808185FFEDCF1D
:10077000CE010E943003E9CFDF91CF91089580E050
:1007800090E0892B29F00E94260381110E9400002D
:1007900080E090E0892B49F080E090E0892B29F0FF
:1007A0000E94000081110E94000080E090E0892BEF
:1007B00049F080E090E0892B29F00E94000081112F
:1007C0000E94000080E090E0892B49F080E090E0FA
:1007D000892B29F00E94000081110C9400000895DB
:1007E000CF92DF92EF92FF920F931F93CF93DF93FD
:1007F0001F921F92CDB7DEB769834A83880F991F76
:100800000091B6081091B708000F111FE0E6F8E05C
:100810009F01205638402017310714F41192F8CF69
:100820002981FC01E05AF74F21838A81808360E0AF
:100830008091B4080E94FB011016110604F50150C6
:100840001109F801E05AF74FE080D090B208C0904B
:10085000B00888E0F82E6E2D661F6627661F8C2D67
:100860000E94FB01EE0C61E08D2D0E94FB0160E017
:100870008D2D0E94FB01FA94F110EDCFDDCF61E0E8
:100880008091B4080F900F90DF91CF911F910F913D
:10089000FF90EF90DF90CF900C94FB01EF92FF92CE
:1008A0000F931F93CF937C018C0183E0000F111FE6
:1008B0008A95E1F70059174FC1E0F80111928F01B5
:1008C00040E06C2FC7010E94F003CF5FC930A9F749
:1008D000CF911F910F91FF90EF9008952F923F922B
:1008E0004F925F926F927F928F929F92AF92BF9240
:1008F000CF92DF92EF92FF920F931F93CF93DF93EC
:100900005C01C0E6D8E06C019924939440E8E42EA1
:10091000F12C10E000E08091B6089091B70818160D
:100920001906BCF4C701002E02C0959587950A945C
:10093000E2F72889F601E00FF11F3081313009F02C
:100940006CC0822B888B4889692D90E080E00E94E2
:10095000F0030F5F1F4F08301105E9F621969394BD
:1009600080E1C80ED11CE9E09E12D3CF93E0E92EBE
:10097000F12C23EC422E512C3BE2632E31E1732EFD
:100980008501005F1F4FC6E8D3E04801F8E08F1AE9
:10099000910886E9C82E83E0D82EF40181914F0199
:1009A000813009F03DC0288060E0822D0E94FB016B
:1009B000F601308061E0832D0E94FB01C3010197A5
:1009C000F1F761E0822D0E94FB0160E0832D0E941F
:1009D000FB01F2E0CF0ED11C08151905F1F6005FFE
:1009E0001F4F229683E0C639D80779F6E1E0EE1A68
:1009F000F10831F6DF91CF911F910F91FF90EF90A9
:100A0000DF90CF90BF90AF909F908F907F906F902E
:100A10005F904F903F902F9008958095822392CFC2
:100A2000C2010197F1F7D5CFCF93DF93FC0101907D
:100A30000020E9F73197AF01481B590BBC018FE843
:100A400097E00E94BC02EC0142E050E068EB73E0EA
:100A50008FE897E00E94BC028C0F9D1FDF91CF9121
:100A60000895EF92FF920F931F93CF93DF93EC01C2
:100A70007B01198218821B821A821D821C82FB0153
:100A800001900020E9F731978F01061B170BB80181
:100A90006F5F7F4F90E080E00E94570A0097B9F0A7
:100AA000998388831B830A832C813D81232B11F436
:100AB000FC0110821D830C83B70188819981DF912D
:100AC000CF911F910F91FF90EF900C94410B888173
:100AD0009981009711F00E94CE09198218821D8217
:100AE0001C821B821A82DF91CF911F910F91FF9080
:100AF000EF9008951F920F920FB60F9211242F932B
:100B00003F938F939F93AF93BF9380912C089091C5
:100B10002D08A0912E08B0912F0830918A0723E06C
:100B2000230F2D3758F50196A11DB11D20938A077B
:100B300080932C0890932D08A0932E08B0932F0833
:100B400080918B0790918C07A0918D07B0918E07B3
:100B50000196A11DB11D80938B0790938C07A093E4
:100B60008D07B0938E07BF91AF919F918F913F9169
:100B70002F910F900FBE0F901F90189526E8230F0E
:100B80000296A11DB11DD2CF1F920F920FB60F92E8
:100B900011240BB60F922F933F934F935F936F9354
:100BA0007F938F939F93AF93BF93EF93FF938FE8C0
:100BB00097E00E943003FF91EF91BF91AF919F9119
:100BC0008F917F916F915F914F913F912F910F90F6
:100BD0000BBE0F900FBE0F901F9018951F920F9293
:100BE0000FB60F9211240BB60F922F938F939F93F2
:100BF000EF93FF93E0919F07F091A0078081E09130
:100C0000A507F091A60782FD1DC090818091A807DD
:100C10008F5F8F732091A907821741F0E091A80799
:100C2000F0E0E157F84F958F8093A807FF91EF917F
:100C30009F918F912F910F900BBE0F900FBE0F9031
:100C40001F9018958081F2CFCF93DF931092920777
:100C50001092910788EE93E0A0E0B0E080939307B4
:100C600090939407A0939507B09396078AEA93E030
:100C70009093900780938F0785EC90E090939C076A
:100C800080939B0784EC90E090939E0780939D0750
:100C900080EC90E09093A00780939F0781EC90E018
:100CA0009093A2078093A10782EC90E09093A40711
:100CB0008093A30786EC90E09093A6078093A50706
:100CC0001092A8071092A9071092AA071092AB07DA
:100CD000C3E3D0E0D093B108C093B00885E390E0BF
:100CE0009093B3088093B20881E390E09093B508A5
:100CF0008093B40881E090E09093B7088093B608A1
:100D000061E083E30E94290261E08091B2080E94C1
:100D1000290261E08091B4080E94290261E080917B
:100D2000B4080E94FB01D093B108C093B008E0E77B
:100D3000F8E080EB98E011928E179F07E1F7D0E082
:100D4000C0E08091B6089091B708C817D90774F52C
:100D500040E06FE0CE010E94F0038091B6089091D0
:100D6000B708C817D9072CF447E06BE0CE010E9402
:100D7000F00340E069E0CE010E94F0038091B608E4
:100D80009091B708C817D9071CF4CE010E944E04F1
:100D90008091B6089091B708C817D9072CF440E0A5
:100DA0006CE0CE010E94F0032196CBCF8FB7F89470
:100DB00040912C0850912D0860912E0870912F08B9
:100DC0008FBF8FB7F89440912C0850912D086091F7
:100DD0002E0870912F088FBF6BEB73E080E398E0D3
:100DE0000E94310560E374E086E398E00E943105DB
:100DF00065EA74E08CE398E00E9431056AE175E0F1
:100E000082E498E00E9431056FE875E088E498E09C
:100E10000E94310564E076E08EE498E00E9431059E
:100E200069E776E084E598E00E9431056EEE76E0B1
:100E30008AE598E0DF91CF910C943105789484B5E0
:100E4000826084BD84B5816084BD85B5826085BDC6
:100E500085B5816085BD80916E00816080936E0054
:100E60001092810080918100826080938100809146
:100E700081008160809381008091800081608093F7
:100E800080008091B10084608093B1008091B000B7
:100E900081608093B0008091910082608093910086
:100EA0008091910081608093910080919000816099
:100EB000809390008091A10082608093A100809136
:100EC000A10081608093A1008091A0008160809347
:100ED000A0008091210182608093210180912101F5
:100EE00081608093210180912001816080932001A5
:100EF00080917A00846080937A0080917A00826089
:100F000080937A0080917A00816080937A0080914A
:100F10007A00806880937A001092C100E0919F0768
:100F2000F091A00782E08083E0919B07F0919C07FD
:100F30001082E0919D07F0919E078FEC80831092C4
:100F4000A707E091A307F091A40786E08083E091D2
:100F5000A107F091A207808180618083E091A107C1
:100F6000F091A207808188608083E091A107F091D1
:100F7000A207808180688083E091A107F091A20799
:100F800080818F7D808356E9C52E53E0D52E860162
:100F9000F80180810E5F1F4F61E00E942902F3E09B
:100FA000063A1F07A9F746E8E42E43E0F42EE701CE
:100FB0008881229661E00E94290283E0C639D80721
:100FC000B9F7F6018081F2E0CF0ED11C60E00E94FB
:100FD000FB010C151D05A9F7F7018081F2E0EF0E6A
:100FE000F11C61E00E94FB01CE15DF05A9F780919D
:100FF000B6089091B7081816190634F441E06CE071
:1010000090E080E00E94F0038091B6089091B708CC
:101010001816190634F44FE06AE090E080E00E9470
:10102000F0038091B6089091B7081816190624F4B9
:1010300090E080E00E944E0462E084E30E94290276
:1010400062E082E30E94290262E080E30E942902BA
:1010500060E08EE20E94290282E0282E312C92E08C
:10106000492E512CC1E0D0E024E0622E712C33E0F7
:10107000832E912C84E30E94D2015C018EE20E94B7
:10108000D2016C0182E30E94D2017C0180E30E94C4
:10109000D2018C0180918807909189078230910557
:1010A00009F461C038F4009771F00197C1F10E9412
:1010B000BF03E0CF8330910509F4AEC00497B9F7C0
:1010C00081E897E0ABC080E093E00E946E0480E38B
:1010D0000E94D201892B59F783E697E00E941405FC
:1010E00068EE73E080E090E00E948A0280E30E9454
:1010F000D201892BE1F686E697E00E94140568EE9E
:1011000073E080E090E00E948A0280E30E94D201B6
:10111000892B69F6D0938907C0938807C8CF80E8E8
:1011200092E00E946E0489E697E00E941405AB28C5
:1011300059F4309289072092880764E670E080E0D5
:1011400090E00E948A02B3CFCD2829F490928907BB
:1011500080928807F2CFEF2809F0A9CF7092890713
:1011600060928807EACF8BE697E00E941405012B76
:1011700009F09DCF85E090E09093890780938807E0
:1011800064E670E080E090E00E948A028091880727
:1011900090918907059789F680E092E00E946E049D
:1011A00080E30E94D201892B89F768EE73E080E02A
:1011B00090E00E948A0283E697E00E94140580E393
:1011C0000E94D201892B11F768EE73E080E090E075
:1011D0000E948A0286E697E00E94140550928907D1
:1011E0004092880780E30E94D201892B79F668EE4D
:1011F00073E080E090E00E948A0281E797E00E941D
:10120000140580E30E94D201892B09F0BFCFD0934F
:101210008907C0938807BACF84E797E00E94140536
:10122000012B09F044CFD0938907C093880785CF5D
:10123000CF93DF93C0E6D8E0269788819981009705
:1012400011F00E94CE0988E0C033D807A9F7DF91DA
:10125000CF910895EE0FFF1F881F8BBF0790F69167
:10126000E02D19940F931F93CF93DF938230910554
:1012700010F482E090E0E091BA08F091BB0830E011
:1012800020E0B0E0A0E0309799F42115310509F491
:101290004AC0281B390B24303105D8F58A819B813F
:1012A0006115710589F1FB0193838283FE0111C0F1
:1012B000408151810281138148175907E0F0481796
:1012C000590799F4109761F012960C9312971396A0
:1012D0001C933296CF01DF91CF911F910F9108950A
:1012E0000093BA081093BB08F4CF2115310551F0D3
:1012F0004217530738F0A901DB019A01BD01DF0154
:10130000F801C1CFEF01F9CF9093BB088093BA08E1
:10131000CDCFFE01E20FF31F81939193225031094B
:1013200039832883D7CF2091B8083091B908232B6F
:1013300041F420918203309183033093B9082093C4
:10134000B80820918003309181032115310541F4C3
:101350002DB73EB74091840350918503241B350B74
:10136000E091B808F091B908E217F307A0F42E1B3A
:101370003F0B2817390778F0AC014E5F5F4F2417F9
:10138000350748F04E0F5F1F5093B9084093B808D7
:10139000819391939FCFF0E0E0E09CCFCF93DF93D8
:1013A0000097E9F0FC01329713821282A091BA08EB
:1013B000B091BB08ED0130E020E01097A1F420814E
:1013C0003181820F931F2091B8083091B9082817F6
:1013D000390709F061C0F093B908E093B808DF91CC
:1013E000CF910895EA01CE17DF07E8F54A815B81C6
:1013F0009E0141155105B1F7E901FB83EA8349914B
:101400005991C40FD51FEC17FD0761F480819181BC
:101410000296840F951FE9019983888382819381C5
:101420009B838A83F0E0E0E012968D919C91139764
:101430000097B9F52D913C911197CD010296820F3D
:10144000931F2091B8083091B9082817390739F649
:10145000309751F51092BB081092BA08B093B908B2
:10146000A093B808BCCFD383C28340815181840F3D
:10147000951FC817D90761F44E5F5F4F8881998126
:10148000480F591F518340838A819B8193838283B4
:101490002115310509F0B0CFF093BB08E093BA08ED
:1014A0009ECFFD01DC01C0CF13821282D7CF4F92B5
:1014B0005F926F927F928F929F92AF92BF92CF92E4
:1014C000DF92EF92FF920F931F93CF93DF938C01E4
:1014D000009799F4CB01DF91CF911F910F91FF906D
:1014E000EF90DF90CF90BF90AF909F908F907F90C4
:1014F0006F905F904F900C943209FC01E60FF71F3C
:101500009C0122503109E217F30708F4AEC0D9015B
:10151000CD91DC911197C617D70720F1C530D105C1
:1015200078F0CE0104978617970750F0C61BD70BAB
:101530002297C193D1936D937C93CF010E94CE09E2
:10154000C801DF91CF911F910F91FF90EF90DF9035
:10155000CF90BF90AF909F908F907F906F905F9053
:101560004F9008955B01AC1ABD0A4C018C0E9D1E74
:10157000A091BA08B091BB08512C412CF12CE12C60
:10158000109731F58091B8089091B90888159905A0
:1015900009F05CC04616570608F058C080918003D9
:1015A00090918103009741F48DB79EB740918403D9
:1015B00050918503841B950BE817F90708F055C077
:1015C000F093B908E093B808F90171836083B8CF4C
:1015D0008D919C91119712966C90129713967C9016
:1015E0001397A815B90559F56C0142E0C40ED11C3A
:1015F000CA14DB0420F1AC014A195B09DA01129626
:10160000159780F06282738251834083D9016D9374
:101610007C93E114F10471F0D7011396FC93EE93DF
:1016200012978ECF22968C0F9D1FF9019183808394
:10163000F301EFCFF093BB08E093BA0881CF4816CF
:10164000590608F42C017D01D3019ACFCB010E94E9
:1016500032097C01009749F0AE01B8010E94380BB5
:10166000C8010E94CE0987016BCF10E000E068CF6F
:10167000FB01DC0102C001900D9241505040D8F7AF
:101680000895FB01DC0101900D920020E1F708951F
:1016900011E0C7E3D1E000E006C0802FFE010E9408
:1016A0002A092196011DC833D10780E00807A9F750
:0416B000F894FFCFDC
:1016B4000000000000000000000000000000000026
:1016C4000000000000010101010000000000000012
:1016D4000000000000010000010000000000000004
:1016E40000000000000100000100000000000000F4
:1016F40000000000000101010100000000000000E2
:1017040000000000000100000000000000000000D4
:1017140000000000000100000000000000000000C4
:1017240000000000000000000000000000000000B5
:10173400000000000001010101010100000000009F
:10174400000000000001010101010100000000008F
:10175400000100000001000101010100000101007D
:10176400000101010001000101000100010000006D
:101774000000000000010000010001000100000061
:101784000000010000010000000001000001010050
:10179400000000000001010101010100000000003F
:1017A400000000000001010101010100000000002F
:1017B4000000000000000000000000000000000025
:1017C4000000000000000001000000000000000014
:1017D4000000000000000001000000000000000004
:1017E40000000000000000010000000000000000F4
:1017F40000000000000000010000000000000000E4
:1018040000000000000000010000000000000000D3
:1018140000000000000100010001000000000000C1
:1018240000000000000000000000000000000000B4
:101834000000BC0880001800160002000300040029
:10184400050006000700080009000A000B000C0050
:101854000D0017001900000000005203BC02E90249
:101864009F031A03F8020C030D0A003030303030A5
:101874003030303030303030303030303030303064
:101884003030303030303030303030303030303054
:101894003030303030303030303030303030303044
:1018A4003030303030303030303030303030303034
:1018B4003030303030303030303030303030303024
:1018C4003030303030303030303030303030303014
:1018D4003030303030303030303030303030300034
:1018E40030303030303031313131303031313030EE
:1018F40030303130303030303030303030313131E0
:1019040031313030303030313131313031313131C9
:1019140030313131313031313131303030313030BA
:1019240030303030303131313130313030313031AC
:10193400313131303131313130303030303031309B
:101944003030313031313130313131303131313089
:1019540031303030003031313131303130303130AC
:10196400313030313030313130303030303130306E
:101974003130303030313030303030303030303160
:10198400303130303130303030313030303031304F
:10199400303130303131313131303130303130313A
:1019A400303031303130303130313030313030302E
:1019B400303030303130313030303130303031301F
:1019C400303031303030313030003031303031303F
:1019D40031313131303130303130313031303131F9
:1019E40031303130303130303030313030313131EC
:1019F40030313131313031303031303131313130D9
:101A040030303130303130303031303030313031CD
:101A140031313130313030313031313131303130B8
:101A240030313030303030303030313030303031AF
:101A340030303031303030313030303031300030CF
:101A44003131313130313130303031313131303088
:101A5400303130303030303130303130313030317D
:101A6400303030303030313030303031303031306F
:101A7400313030303030303031303130303031315D
:101A8400313131303131303030313030313031304A
:101A9400303030313030313030303030303030313F
:101AA400303030303130303031303030313030302F
:101AB400303130003031303030303130313030314D
:101AC400303031303030313030303030313030310E
:101AD40030313030313030303030303130303030FF
:101AE40031303031303130303030313030313030ED
:101AF40031303030303030313031303130303130DD
:101B040030313031303030303130303130303030CD
:101B140030303031303130303031303030313030BD
:101B240030313030303130300030313030303031DD
:101B3400303031303130303130303031303030309D
:101B4400303031313030313131313030303030308B
:101B54003131313130313131313031313131303075
:101B6400313130303030313030303030313031306C
:101B74003031303131313130313030303031313158
:101B8400313030303030303130303031303131314B
:101B94003031313130313131303130303000303169
:101BA4003030303030303030303030303030303031
:101BB4003030303030303030303030303030303021
:101BC4003030303030303030303030303030303011
:101BD40030303030303030303030303030313131FE
:101BE40031303030303030303030303030303030F0
:101BF40030303030303030303030303030303030E1
:101C040030303030303030303030303030303030D0
:101C14003030003173003273002E004A5547415270
:101C24000033730045535441444953544943415389
:081C340000434F4E46494700F2
:00000001FF
