:100000000C9438010C9469010C9469010C946901F9
:100010000C9469010C9469010C9469010C946901B8
:100020000C9469010C9469010C9469010C946901A8
:100030000C9469010C9469010C9469010C94690198
:100040000C9469010C9469010C9469010C94690188
:100050000C9469010C9469010C9469010C94AF0A29
:100060000C9469010C94230B0C94F90A0C9469010B
:100070000C9469010C9469010C9469010C94690158
:100080000C9469010C9469010C9469010C94690148
:100090000C9469010C9469010C9469010C94690138
:1000A0000C9469010C9469010C9469010C94690128
:1000B0000C9469010C9469010C9469010C94690118
:1000C0000C9469010C9469010C9469010C94690108
:1000D0000C9469010C9469010C9469010C946901F8
:1000E0000C9469010C949B010C94B2010C9497013F
:1000F0000C943D030C94AE010C9489010C9475038F
:100100000C940C030C942F030C94C9010C949301D0
:100110000C948F010C949E010C941B030C94CA0147
:100120000C94B6010C94D6120C94A8010C94DF0226
:100130000C94A4010C94BC010C94CE010C94C0014D
:100140000C94C2030C94C4010C94590B00002100C0
:10015000240027002A002D00300033000101000098
:10016000040107010A0100002200250028002B00DD
:100170002E003100340002010000050108010B01CE
:10018000000020002300260029002C002F00320050
:100190000001000003010601090105050505070529
:1001A00008080808020202020A0A080804040404F3
:1001B000010101010101010103030303030303031F
:1001C000040707070C0C0C0C0C0C0C0C02020202AE
:1001D00006060606060606060B0B0B0B0B0B0B0B97
:1001E0000102102020080810204010204080020149
:1001F000020108040201010204081020408080402E
:10020000201008040201800402018040201008042C
:1002100002010804020101020408102040800102CA
:1002200004081020408000000A0B02090C0D0E0883
:1002300007030401000000000000000000000000AF
:1002400000000000000000000000000000000000AE
:10025000000012111000000000000000000000006B
:10026000000000000000000000000000590BD61242
:1002700011241FBECFEFD1E2DEBFCDBF00E00CBF27
:1002800017E0A0E0B2E0ECEAF0E300E00BBF02C050
:1002900007900D92A23AB107D9F72AE0A2EAB7E097
:1002A00001C01D92AC38B207E1F711E0C7E3D1E01D
:1002B00000E006C021970109802FFE010E940B1665
:1002C000C633D10780E00807A9F70E94420C0C94BE
:1002D00044180C9400008150823108F05AC0E82F75
:1002E000F0E08827E958FE4F8F4F0C940B169701CA
:1002F0009B0189018F019301C9019E01A401A801FD
:10030000AE01B201B601BC01C001C901C401CA01FC
:10031000CE01809180008F77809380000895809136
:1003200080008F7DF9CF80918000877FF5CF84B5E5
:100330008F7784BD089584B58F7DFBCF8091B00009
:100340008F778093B00008958091B0008F7DF9CFB2
:10035000809190008F778093900008958091900015
:100360008F7DF9CF80919000877FF5CF8091A0009D
:100370008F778093A00008958091A0008F7DF9CFA2
:100380008091A000877FF5CF809120018F778093A7
:1003900020010895809120018F7DF9CF8091200167
:1003A000877FF5CFCF93DF93282F30E0F901EA5D07
:1003B000FD4F8491F901E052FE4FD491F901E656C8
:1003C000FE4FC491CC23A1F081110E946B01EC2F50
:1003D000F0E0EE0FFF1FE058FE4FA591B491EC91B5
:1003E000ED2381E090E009F480E0DF91CF91089562
:1003F00080E090E0FACF1F93CF93DF93282F30E077
:10040000F901EA5DFD4F8491F901E052FE4FD4916C
:10041000F901E656FE4FC491CC23A9F0162F8111A5
:100420000E946B01EC2FF0E0EE0FFF1FEA59FE4F28
:10043000A591B4918FB7F894EC91111108C0D095A3
:10044000DE23DC938FBFDF91CF911F910895DE2BC8
:10045000F8CFCF93DF9390E0FC01E052FE4F249160
:1004600086569E4FFC0184918823C9F090E0880F46
:10047000991FFC01E45BFE4FA591B491FC01EA5980
:10048000FE4FC591D49161110DC09FB7F8948C9126
:10049000209582238C938881282328839FBFDF9116
:1004A000CF910895623051F49FB7F8943C91822F18
:1004B000809583238C93E8812E2BEFCF8FB7F89410
:1004C000EC912E2B2C938FBFEACF90917B00977FDE
:1004D00090937B008653806480937C0080917A00A7
:1004E000806480937A0080917A0086FDFCCF8091B1
:1004F00078009091790008953FB7F89480915B0956
:1005000090915C09A0915D09B0915E0926B5A89B08
:1005100005C02F3F19F00196A11DB11D3FBFBA2F95
:10052000A92F982F8827BC01CD01620F711D811D55
:10053000911D42E0660F771F881F991F4A95D1F7DA
:1005400008958F929F92AF92BF92CF92DF92EF92D7
:10055000FF924B015C010E947C026B017C010E94B6
:100560007C026C197D098E099F09683E73408105E4
:100570009105A8F321E0821A9108A108B10888EE3C
:10058000C80E83E0D81EE11CF11C81149104A10463
:10059000B10429F7FF90EF90DF90CF90BF90AF901C
:1005A0009F908F9008952FB7F8946091570970919C
:1005B00058098091590990915A092FBF0895AF9217
:1005C000BF92CF92DF92EF92FF920F931F93CF9340
:1005D000DF936C017B018B01040F151FEB015E01A2
:1005E000AE18BF08C017D10759F06991D601ED9137
:1005F000FC910190F081E02DC6011995892B79F7C6
:10060000C501DF91CF911F910F91FF90EF90DF9087
:10061000CF90BF90AF900895FC01538D448D252F4E
:1006200030E0842F90E0821B930B541710F0CF968C
:10063000089501970895FC01918D828D981761F0BE
:10064000A28DAE0FBF2FB11D5D968C91928D9F5FD5
:100650009F73928F90E008958FEF9FEF0895FC01B4
:10066000918D828D981731F0828DE80FF11D858D67
:1006700090E008958FEF9FEF0895FC01918D228DFA
:10068000892F90E0805C9F4F821B91098F7399277F
:1006900008958FE599E00E943D0321E0892B09F43C
:1006A00020E0822F0895FC01A48DA80FB92FB11D61
:1006B000A35ABF4F2C91848D90E001968F73992798
:1006C000848FA689B7892C93A089B1898C91837076
:1006D00080648C93938D848D981306C00288F3896F
:1006E000E02D80818F7D80830895EF92FF920F939C
:1006F0001F93CF93DF93EC0181E0888F9B8D8C8DCE
:1007000098131AC0E889F989808185FF15C09FB7C1
:10071000F894EE89FF896083E889F9898081837084
:10072000806480839FBF81E090E0DF91CF911F9133
:100730000F91FF90EF900895F62E0B8D10E00F5F54
:100740001F4F0F731127E02E8C8D8E110CC00FB62A
:1007500007FCFACFE889F989808185FFF5CFCE01C2
:100760000E945303F1CFEB8DEC0FFD2FF11DE35AE7
:10077000FF4FF0829FB7F8940B8FEA89FB89808145
:100780008062CFCFCF93DF93EC01888D8823B9F0BF
:10079000AA89BB89E889F9898C9185FD03C080818C
:1007A00086FD0DC00FB607FCF7CF8C9185FFF2CF09
:1007B000808185FFEDCFCE010E945303E9CFDF9109
:1007C000CF91089580E090E0892B29F00E944903A1
:1007D00081110E94000080E090E0892B49F080E0C8
:1007E00090E0892B29F00E94000081110E940000F6
:1007F00080E090E0892B49F080E090E0892B29F09F
:100800000E94000081110E94000080E090E0892B8E
:1008100049F080E090E0892B29F00E9400008111CE
:100820000C9400000895E0912A08F0912B08809123
:1008300008028823D9F03197E031F105B0F48091B6
:10084000280890912908029624E0880F991F2A957C
:10085000E1F7DC01A05DB74FAE0FBF1F21E02C9385
:100860008E55984FE80FF91F208308953196E4CFF5
:1008700080912A0890912B088E3F2FEF92070CF45D
:1008800046C08E309105E4F4E0912808F0912908E3
:10089000DF0164E0AA0FBB1F6A95E1F7A05DB74FC7
:1008A000AC014E5F5F4FA40FB51F1C9274E0EE0FBA
:1008B000FF1F7A95E1F7E05CF74FE40FF51F108218
:1008C0008E3FEFEF9E0719F18F30910574F4E091A0
:1008D0002808F091290854E0EE0FFF1F5A95E1F720
:1008E000E05CF74FE80FF91F11828F3F980779F00E
:1008F000209128083091290844E0220F331F4A959F
:10090000E1F7205C374F820F931FFC01108208959E
:1009100080912A0890912B08823191050CF045C0F6
:1009200082309105E4F0E0912808F0912908DF0178
:1009300064E0AA0FBB1F6A95E1F7A05DB74FAC0159
:1009400042505109A40FB51F1C9274E0EE0FFF1F17
:100950007A95E1F7E05CF74FE40FF51F10828131E3
:10096000910519F11816190674F4E0912808F09110
:10097000290854E0EE0FFF1F5A95E1F7E80FF91F21
:10098000E15CF74F10828031910579F020912808C1
:100990003091290844E0220F331F4A95E1F7205C8B
:1009A000374F820F931FFC01108208957F928F9220
:1009B0009F92AF92BF92CF92DF92EF92FF920F93EE
:1009C0001F93CF93DF93882E792E5B0100E213E013
:1009D0009CEFE92E99E0F92EF80190800E5F1F4FF1
:1009E00060E0892D0E94FB0180E3C82E83E0D82EB1
:1009F000C82DD72DAC16BD06E4F0F6018081F2E0DB
:100A0000CF0ED11CF70124813581C217D30760F4C2
:100A1000208131812115310539F02C0F3D1FF9015D
:100A2000908161E0913309F060E00E94FB01219622
:100A3000E1CF61E070E080E090E00E94A10261E01F
:100A4000892D0E94FB01F6E0EF0EF11C83E00033DC
:100A5000180711F6DF91CF911F910F91FF90EF9042
:100A6000DF90CF90BF90AF909F908F907F90089530
:100A70001F93CF93DF93EC01FB01EE0FFF1FE05EAE
:100A8000FC4F108160E0812F0E94FB01CC0FDD1F25
:100A9000C05DDC4FC88161E08C2F0E94FB018BE2BE
:100AA00091E10197F1F761E0812F0E94FB0160E085
:100AB0008C2FDF91CF911F910C94FB01CF92DF928D
:100AC000EF92FF920F931F93CF93DF931F921F928A
:100AD000CDB7DEB769834A83880F991F0091860AD4
:100AE0001091870A000F111FE0E3FAE09F012053E5
:100AF0003A402017310714F41192F8CF2981FC01F4
:100B0000E05DF54F21838A81808360E08091840AD3
:100B10000E94FB011016110604F501501109F8019D
:100B2000E05DF54FE080D090820AC090800A88E0B6
:100B3000F82E6E2D661F6627661F8C2D0E94FB0106
:100B4000EE0C61E08D2D0E94FB0160E08D2D0E9476
:100B5000FB01FA94F110EDCFDDCF61E08091840AC2
:100B60000F900F90DF91CF911F910F91FF90EF9019
:100B7000DF90CF900C94FB01EF92FF921F93CF93E5
:100B8000DF932091860A3091870A82179307B4F485
:100B9000EC0123E0880F991F2A95E1F79C01205C66
:100BA000354F790111E0F70111927F0140E0612F8B
:100BB000CE010E945E051F5F1930A9F7DF91CF912A
:100BC0001F91FF90EF9008952091860A3091870A37
:100BD00012161306FCF488309105E0F468307105B4
:100BE000C9F020E830E002C0359527956A95E2F714
:100BF000FC01E05DF54F5089442349F0252B208B03
:100C000061E0680F408990E080E00C945E052095DB
:100C10002523F5CF08957F928F929F92AF92BF9236
:100C2000CF92DF92EF92FF920F931F93CF93DF93B8
:100C30008C017B01D0E0C0E083ECA82EB12C6801D0
:100C40008FEFC81AD80AC530D10534F577247394CC
:100C5000CE15DF050CF0712C472D4E0183E0880E78
:100C6000911CB401C8010E94E405472DB401C601DE
:100C70000E94E4052196CA30D10529F7DF91CF9172
:100C80001F910F91FF90EF90DF90CF90BF90AF90AA
:100C90009F908F907F900895CE15DF056CF4B8017A
:100CA0004E0185E0881A9108C4010E943805B601FA
:100CB000C4010E943805DECFC5010197F1F7DACFF4
:100CC000AF92BF92CF92DF92EF92FF920F931F935A
:100CD000CF93DF9330E3E32E38E0F32E10E000E013
:100CE000D0E0C0E041E0F701EC0FFD1F80818130D2
:100CF00009F040E0BE01C8010E94E4052196C83019
:100D0000D10581F70F5F1F4F80E1E80EF11C08301D
:100D1000110531F793E0E92EF12C23ECA22EB12C32
:100D200080E3C82E88E0D82E10E000E0C8E0D0E0D4
:100D3000F601EC0FFD1F8081813001F5B801CE0175
:100D400008970E9438052196C031D10589F70F5FB9
:100D50001F4F80E1C80ED11C0830110539F781E022
:100D6000E81AF108E9F6DF91CF911F910F91FF90FA
:100D7000EF90DF90CF90BF90AF900895C50101979D
:100D8000F1F7E1CFCF92DF92EF92FF920F931F9393
:100D9000CF93DF937C016B010CEF19E0D0E0C0E052
:100DA000F80184819581C816D90658F48081918113
:100DB000009739F08C0D9D1DFC01808141E081334D
:100DC00009F040E0B701CE010E94E40521960A5FD8
:100DD0001F4FC830D10521F7DF91CF911F910F919F
:100DE000FF90EF90DF90CF9008956F927F928F9257
:100DF0009F92AF92BF92CF92DF92EF92FF920F93AA
:100E00001F93CF93DF935C017C01D0E0C0E06701CA
:100E100010E000E0F60181916F0141E0813009F0BE
:100E200040E0B801CE010E94E4050F5F1F4F08307B
:100E3000110581F72196F0E1EF0EF11CC830D105C4
:100E400031F783E0E82EF12C93EC692E712C6501CB
:100E500088E0C80ED11CD0E0C0E0460110E000E000
:100E6000F40181914F01813019F5BE01C8010E9442
:100E700038050F5F1F4F0830110591F72196F0E1FB
:100E8000CF0ED11CC830D10541F781E0E81AF10836
:100E9000F1F6DF91CF911F910F91FF90EF90DF90CE
:100EA000CF90BF90AF909F908F907F906F9008955C
:100EB000C3010197F1F7DDCFFC0101900020E9F7B4
:100EC0003197AF01481B590BBC018FE599E00C9499
:100ED000DF02CF93DF930E945C07EC0182E593E091
:100EE0000E945C078C0F9D1FDF91CF9108952F9278
:100EF0003F924F925F926F927F928F929F92AF92AA
:100F0000BF92CF92DF92EF92FF920F931F93CF93F6
:100F1000DF9392E1692E98E0792E20EAE22E28E014
:100F2000F22E37E0C32ED12C3324339445E0442EE7
:100F3000512C22242394809128089091290801960D
:100F40008C159D050CF09BC0D0E0C0E083010C0F18
:100F50001D1FD8018C91813009F077C0B7E0CB1606
:100F6000D10409F081C0FE01EE0FFF1FE055F74FDD
:100F700080819181019709F060C011821082809177
:100F8000030290910402019790930402809303025C
:100F900080912608909127080196909327088093C6
:100FA0002608B2010E94F715892B69F480919302FB
:100FB000909194020196909394028093930285E518
:100FC00093E00E9469078091030290910402892BAB
:100FD000A1F58AE693E00E9469078091050290914D
:100FE0000602019690930602809305020E94D302A6
:100FF0000E94D3024B015C01E0ED8E0EE7E09E1EE5
:10100000A11CB11C0E94D302681579058A059B05B5
:10101000C8F3209207021092290810922808109213
:101020002B0810922A080E94D30260932208709322
:1010300023088093240890932508D8011C92F70177
:10104000EC0FFD1F1082209202022196C031D105C3
:1010500009F07CCFB1E0CB1AD108E0E16E1A71083B
:10106000F0E1EF1AF10867CFF8011082F701EC0FF9
:10107000FD1F1082D80150963C92308AE6CFDF9156
:10108000CF911F910F91FF90EF90DF90CF90BF9085
:10109000AF909F908F907F906F905F904F903F9018
:1010A0002F9008954F925F926F927F92AF92BF926E
:1010B000CF92DF92EF92FF920F931F93CF93DF9324
:1010C000CDB7DEB7A1970FB6F894DEBF0FBECDBF88
:1010D00009E812E0F80190E080E0219131912F3F82
:1010E0003F4F61F4880F991FFC01E757FD4F809136
:1010F000260890912708918380832CC00196853023
:10110000910559F780918B0290918C0290938A02FD
:101110008093890280918D0290918E0290938C022F
:1011200080938B0280918F029091900290938E0217
:1011300080938D02809191029091920290939002FF
:1011400080938F02809126089091270890939202B5
:10115000809391028AE793E00E94690783E9A82EB1
:1011600082E0B82E9AE0492E512C612C712CF801A6
:10117000C190D1908F010D2C000CEE08FF08F7FEF6
:1011800041C06DE28FE599E00E9475032227332765
:10119000A9012C193D094E095F0919A2CE018196BA
:1011A0007C01CA01B901A30192010E94E214605DB1
:1011B000F70162937F01211531054105510589F73A
:1011C000E114F10419F0C7010E945C0782E593E085
:1011D0000E945C07A016B10651F6A1960FB6F894CE
:1011E000DEBF0FBECDBFDF91CF911F910F91FF905A
:1011F000EF90DF90CF90BF90AF907F906F905F9017
:101200004F900895A701960119A2CE0181967C0105
:10121000CA01B901A30192010E94E214605DF701C5
:1012200062937F01211531054105510589F7C8CF2A
:1012300080919302909194020197909394028093ED
:101240009302892BD9F40E94520810922708109219
:10125000260883E090E0909394028093930210928A
:101260002B0810922A08109229081092280881E071
:1012700090E09093060280930502089580912808DB
:10128000909129080297909329088093280808953F
:1012900080912A0890912B0820910802222309F4BA
:1012A00065C002978031910510F520912808309192
:1012B0002908F901A4E0EE0FFF1FAA95E1F7E05D10
:1012C000F74FE80FF91F4081413069F0E4E0220F49
:1012D000331FEA95E1F7205C374F820F931FFC0123
:1012E0008081813021F483E893E00E946907809136
:1012F0002A0890912B089C01215031092031310599
:10130000B0F4E0912808F091290874E0EE0FFF1F77
:101310007A95E1F7E80FF91FE15CF74F80818130A2
:1013200031F480EA93E00E9469070E9418098091D5
:101330002A0890912B08803191050CF065C0E0914E
:101340002808F091290864E0EE0FFF1F6A95E1F785
:10135000E05CF74FE80FF91F8081813009F054C03D
:101360008DEB93E00E9469070C9418090296803176
:10137000910520F52091280830912908F90154E0C1
:10138000EE0FFF1F5A95E1F7E05DF74FE80FF91FE9
:101390004081413069F044E0220F331F4A95E1F764
:1013A000205C374F820F931FFC018081813031F424
:1013B00083E893E00E9469070E94180980912A0837
:1013C00090912B089C012F5F3F4F20313105B0F4E5
:1013D000E0912808F091290824E0EE0FFF1F2A95DC
:1013E000E1F7E05CF74FE80FF91F8181813031F4BC
:1013F00080EA93E00E9469070E94180980912A08F8
:1014000090912B0897FF9BCF08950F931F93CF9335
:10141000DF930E94D30200912208109123082091AB
:10142000240830912508601B710B820B930B603DE3
:101430007740810591059CF0C0912808D09129083A
:101440000E94D3026093220870932308809324089B
:10145000909325082196D0932908C093280880915D
:10146000280890912908079729F580919302909177
:10147000940201979093940280939302892BF9F43C
:101480000E945208109227081092260883E090E0EC
:10149000909394028093930210922B0810922A0842
:1014A000109229081092280881E090E0909306029B
:1014B00080930502DF91CF911F910F91089584E0F1
:1014C00090E09093290880932808F4CFEF92FF9240
:1014D0000F931F93CF93DF93EC017B011982188246
:1014E0001B821A821D821C82FB0101900020E9F7F9
:1014F00031978F01061B170BB8016F5F7F4F90E08C
:1015000080E00E9453170097B9F0998388831B836A
:101510000A832C813D81232B11F4FC0110821D8351
:101520000C83B70188819981DF91CF911F910F9131
:10153000FF90EF900C943D1888819981009711F0ED
:101540000E94CA16198218821D821C821B821A826E
:10155000DF91CF911F910F91FF90EF9008951F920F
:101560000F920FB60F9211242F933F938F939F9357
:10157000AF93BF938091570990915809A091590951
:10158000B0915A093091560923E0230F2D3758F5B1
:101590000196A11DB11D2093560980935709909380
:1015A0005809A0935909B0935A0980915B09909109
:1015B0005C09A0915D09B0915E090196A11DB11D64
:1015C00080935B0990935C09A0935D09B0935E09D9
:1015D000BF91AF919F918F913F912F910F900FBE2F
:1015E0000F901F90189526E8230F0296A11DB11D9C
:1015F000D2CF1F920F920FB60F9211240BB60F92FB
:101600002F933F934F935F936F937F938F939F930A
:10161000AF93BF93EF93FF938FE599E00E9453033D
:10162000FF91EF91BF91AF919F918F917F916F91BA
:101630005F914F913F912F910F900BBE0F900FBE76
:101640000F901F9018951F920F920FB60F921124B2
:101650000BB60F922F938F939F93EF93FF93E0918D
:101660006F09F09170098081E0917509F091760918
:1016700082FD1DC09081809178098F5F8F732091CA
:101680007909821741F0E0917809F0E0E15AF64FCC
:10169000958F80937809FF91EF919F918F912F9172
:1016A0000F900BBE0F900FBE0F901F90189580816A
:1016B000F2CFCF93DF93109262091092610988EE06
:1016C00093E0A0E0B0E08093630990936409A09355
:1016D0006509B093660984E493E090936009809370
:1016E0005F0985EC90E090936C0980936B0984EC22
:1016F00090E090936E0980936D0980EC90E0909358
:10170000700980936F0981EC90E090937209809347
:10171000710982EC90E0909374098093730986ECD0
:1017200090E0909376098093750910927809109251
:10173000790910927A0910927B09C3E3D0E0D09323
:10174000810AC093800A85E390E09093830A809396
:10175000820A81E390E09093850A8093840A81E075
:1017600090E09093870A8093860A61E083E30E9469
:10177000290261E08091820A0E94290261E0809141
:10178000840A0E94290261E08091840A0E94FB0180
:10179000D093810AC093800AE0E4FAE080E89AE0FE
:1017A00011928E179F07E1F7D0E0C0E08091860A82
:1017B0009091870AC817D9073CF540E06FE0CE0149
:1017C0000E945E058091860A9091870AC817D90702
:1017D0002CF447E06BE0CE010E945E0540E069E03A
:1017E000CE010E945E05CE010E94BC058091860A52
:1017F0009091870AC817D9072CF440E06CE0CE011D
:101800000E945E052196D2CF0E94D30260932C0ADB
:1018100070932D0A80932E0A90932F0A0E94D30270
:1018200065ED73E08CEF99E00E94660A6AE474E06B
:1018300082E09AE00E94660A6FEB74E088E09AE02A
:101840000E94660A64E375E08EE09AE00E94660AF0
:1018500069EA75E084E19AE00E94660A6EE176E04A
:101860008AE19AE00E94660A63E976E080E29AE003
:101870000E94660A68E077E086E29AE0DF91CF9105
:101880000C94660ACF93DF93CDB7DEB7A8970FB657
:10189000F894DEBF0FBECDBF789484B5826084BD5E
:1018A00084B5816084BD85B5826085BD85B5816064
:1018B00085BD80916E00816080936E0010928100E2
:1018C000809181008260809381008091810081609D
:1018D000809381008091800081608093800080915E
:1018E000B10084608093B1008091B00081608093EA
:1018F000B00080919100826080939100809191006E
:10190000816080939100809190008160809390002D
:101910008091A10082608093A1008091A1008160EC
:101920008093A1008091A00081608093A0008091AD
:101930002101826080932101809121018160809347
:1019400021018091200181608093200180917A00A3
:10195000846080937A0080917A00826080937A001C
:1019600080917A00816080937A0080917A0080680B
:1019700080937A001092C100E0916F09F091700994
:1019800082E08083E0916B09F0916C091082E09114
:101990006D09F0916E098FEC808310927709E091C8
:1019A0007309F091740986E08083E0917109F091E8
:1019B0007209808180618083E0917109F0917209E0
:1019C000808188608083E0917109F0917209808143
:1019D00080688083E0917109F091720980818F7D28
:1019E0008083E0E3EE2EE3E0FE2E8701F8018081A4
:1019F0000E5F1F4F61E00E942902F3E000341F07D1
:101A0000A9F700E213E06801F6018081F2E0CF0E51
:101A1000D11C61E00E94290220E3C21623E0D20615
:101A200099F7F7018081F2E0EF0EF11C60E00E946F
:101A3000FB0120E4E21623E0F20699F7F801808129
:101A40000E5F1F4F61E00E94FB01F3E000331F07B0
:101A5000A9F78091860A9091870A1816190634F41E
:101A600041E06CE090E080E00E945E058091860A93
:101A70009091870A1816190634F44FE06AE090E056
:101A800080E00E945E0590E080E00E94BC0562E07C
:101A900084E30E94290262E082E30E94290262E05C
:101AA00080E30E94290260E08EE20E942902CE01BA
:101AB000019698A38F8FFE017596FAA3E9A3FCA364
:101AC000EBA384E30E94D2017C018EE20E94D2014A
:101AD0009EA38DA382E30E94D2018C0180E30E9429
:101AE000D2013C01809154099091550982309105B1
:101AF00009F49FC148F4009709F45CC0019709F408
:101B000070C10E94E203DDCF8330910509F48DC3DB
:101B10000497B9F78BE997E00E94690790E080E0AD
:101B20000E94BC0586E30E9465022AE030E0DC01E9
:101B30000E941316C12C24E0D22EE12CF12CA70117
:101B400096010E94B01449015A018FEF881A980A31
:101B5000A80AB80A909253098092520987E30E941A
:101B60006502BC01990F880B990B33E0660F771F54
:101B7000881F991F3A95D1F7A70196010E94B014CA
:101B800069017A0193E0C90ED11CE11CF11CD092CD
:101B90005109C0925009D0929402C0929302B401AC
:101BA00081E090E00E940B06B60185E090E00E9483
:101BB0000B064BC40091000210910102B80168505D
:101BC0007109480197E0891A91085801E6E0AE1AB8
:101BD000B1086801F5E0CF1AD108780124E0E21AD3
:101BE000F108380183E0681A7108280192E0491A67
:101BF0005108F8013197F8A7EFA31801F7E02F0E6D
:101C0000311C8091150390E0882309F498C080E08E
:101C10000E94C206B40181E090E00E94C206B501B4
:101C200082E090E00E94C206B60183E090E00E944C
:101C3000C206B70184E090E00E94C206B30185E0CD
:101C400090E00E94C206B20186E090E00E94C206C7
:101C50006FA178A587E090E00E94C206B101C8019B
:101C60000E94D604093F1F4F31F48BE790E0909318
:101C70000102809300020E94D30200912C0A10916D
:101C80002D0A20912E0A30912F0A601B710B820BB6
:101C9000930B683C7105810591059CF080910002D1
:101CA00090910102019790930102809300020E949B
:101CB000D30260932C0A70932D0A80932E0A90937E
:101CC0002F0A8DA19EA1892B69F468EC70E080E059
:101CD00090E00E94A10280911503882309F47DC041
:101CE0001092150380E30E94D201892B09F009CFDD
:101CF0008DE797E00E94690768EE73E080E090E06E
:101D00000E94A10280E30E94D201892B09F0F9CE42
:101D100080E897E00E94690768EE73E080E090E059
:101D20000E94A10280E30E94D201892B09F0E9CE32
:101D300081E090E09093550980935409E2CE80E0D1
:101D40000E94C206B40181E090E00E94C206B50183
:101D500082E090E00E94C206B60183E090E00E941B
:101D6000C206B70184E090E00E94C206B30185E09C
:101D700090E00E94C206B20186E090E00E94C20696
:101D80006FA178A587E090E00E94C206B101C8016A
:101D90000E94D6040E37110531F489EF9FEF90931E
:101DA0000102809300020E94D30200912C0A10913C
:101DB0002D0A20912E0A30912F0A601B710B820B85
:101DC000930B683C7105810591050CF47ACF8091E5
:101DD000000290910102019666CF81E08093150385
:101DE00081CF85E992E00E94F50683E897E00E94A2
:101DF0006907EF2869F4E2E0F0E0F0935509E09319
:101E0000540964E670E080E090E00E94A10279CE7F
:101E10008DA19EA1892B39F483E090E09093550920
:101E200080935409EECF012B09F06BCE84E090E053
:101E3000F5CF85E897E00E94690784E30E94D2010C
:101E4000892B21F40E9488041092080282E30E94E8
:101E5000D201892B29F40E94380481E08093080282
:101E6000C0902C08D0902D08E0902E08F0902F08FC
:101E700080910802882309F4EEC00E9488040E9421
:101E8000D3026C197D098E099F09683C7105810593
:101E90009105CCF00E9477070E94D30260932C0832
:101EA00070932D0880932E0890932F0880912A0814
:101EB00090912B08019662E170E00E94F7159093D3
:101EC0002B0880932A080E94050A0E9448098EE286
:101ED0000E94D201892B41F480910202882321F0D3
:101EE0000E9413041092020280912A0890912B08FC
:101EF000823191050CF048C082309105ECF0E09100
:101F00002808F0912908DF0164E0AA0FBB1F6A9539
:101F1000E1F7A05DB74FAC0142505109A40FB51FC6
:101F200061E06C9374E0EE0FFF1F7A95E1F7E05CDF
:101F3000F74FE40FF51F60838131910529F11816E1
:101F400019067CF4E0912808F091290854E0EE0F7E
:101F5000FF1F5A95E1F7E80FF91FE15CF74F21E009
:101F600020838031910581F0209128083091290843
:101F700044E0220F331F4A95E1F7205C374F820F70
:101F8000931F21E0FC0120830E94600680910702DC
:101F9000882309F4F0C0E0EBF8E080ED98E01192BE
:101FA00011928E179F07D9F7809105029091060232
:101FB0000296813191050CF0CEC09093040280937B
:101FC000030210E000E0CC24C394D12C5524539498
:101FD0008091030290910402081719070CF0C9C000
:101FE0000E94341320E130E040E050E00E94B01441
:101FF0004B017B010E943413F401EE0FFF1FE055EB
:10200000F74F208131812130310509F4AFC0D182F1
:10201000C08224E030E040E050E00E94B0146F5FE6
:102020007F4F8F4F9F4F90E080E0E816F90609F050
:1020300095C0A701405D574F30E020E04051510965
:10204000261737070CF08AC0FA01E058FF4F50827C
:102050002F5F3F4FF3CF0E9438040E94D3026C19C8
:102060007D098E099F09683C710581059105D4F0B1
:102070000E9477070E94D30260932C0870932D086A
:1020800080932E0890932F0880912A0890912B0816
:1020900001978E3FFFEF9F070CF45AC090932B08D7
:1020A00080932A080E94050A0E9448098EE20E9435
:1020B000D201892B41F480910202882321F00E94F1
:1020C00013041092020280912A0890912B088E3FEF
:1020D0002FEF92070CF458CF8E309105ECF4E0917D
:1020E0002808F0912908DF0104E0AA0FBB1F0A9518
:1020F000E1F7A05DB74FAC014E5F5F4FA40FB51F76
:1021000061E06C9324E0EE0FFF1F2A95E1F7E05C9D
:10211000F74FE40FF51F60838E3FEFEF9E0709F442
:1021200033CF8F3091057CF4E0912808F091290895
:1021300014E0EE0FFF1F1A95E1F7E05CF74FE80F90
:10214000F91F21E021838F3F980709F00DCF1CCFA5
:102150008FE090E0A3CF80E190E02FCF0196803117
:10216000910509F062CF0F5F1F4F32CF0150110967
:10217000FACF10920702672809F0C3CC85E090E0FF
:10218000909355098093540964E670E080E090E0F4
:102190000E94A10201E010E080915409909155093C
:1021A000059709F02ECE89E092E00E94F50680E3C3
:1021B0000E94D201892B81F768EE73E080E090E005
:1021C0000E94A1028DE797E00E94690780E30E94C8
:1021D000D201892B09F768EE73E080E090E00E945D
:1021E000A10280E897E00E94690782E090E0909366
:1021F00055098093540980E30E94D201892B61F62E
:1022000068EE73E080E090E00E94A1028BE897E026
:102210000E94690780E30E94D201892B09F0BCCF9C
:102220001093550900935409B7CF8EE897E00E94A8
:10223000690790E080E00E94BC0580ED98E030E006
:1022400020E0FC01E20FF31F10822F5F3F4F20318F
:102250003105B9F74096E9E080359E0781F784E1C2
:10226000EF8DF8A111928A95E9F78AE0E9A1FAA128
:1022700011928A95E9F709E812E07801812C912CF6
:102280005401F701619171917F0177FD0EC0072E16
:10229000000C880B990B0E9493139B01AC01C501A4
:1022A000B4010E9414154B015C01F3E9EF16F2E052
:1022B000FF0639F7CE0101967C016C01F8016191AE
:1022C00071918F0177FD15C0072E000C880B990BBB
:1022D0000E949313A50194010E94801520E030E034
:1022E00040E051E40E94F213F6016083718382831F
:1022F0009383F4E0CF0ED11C22E003391207F1F6EC
:10230000CE0145966C018C01E4E04E2E512CF3E099
:102310002F2E312CF70181909190A190B1907F01E7
:1023200020E030E0A901C501B4010E94F2151816A1
:102330000CF091C020E030E040E85FE3C501B4015B
:102340000E948C1318160CF486C081E090E0F8010E
:10235000918380830E5F1F4F8BA19CA1E816F90625
:10236000C9F622E030E081E090E011E0F6016191F1
:1023700071916F011616170694F4FC01E05CF64F9C
:1023800050E040E01083DF01A81BB90BA20FB31F80
:102390001C934F5F5F4F70976417750799F703960B
:1023A0002D5F3F4F8031910509F770EDC72E78E022
:1023B000D72EF12CE12C10E000E041E0F601E00F17
:1023C000F11F8081813009F040E0B801C7010E940F
:1023D000E4050F5F1F4F0830110579F7FFEFEF1A83
:1023E000FF0A20E1C20ED11C88E0E816F10419F7BB
:1023F00053E0C52ED12C63EC862E912C40EDA42EFB
:1024000048E0B42EF12CE12C08E010E0F501E00FDB
:10241000F11F8081813009F0C5C0B701C80108975C
:102420000E9438050F5F1F4F0031110579F79FEFAC
:10243000E91AF90AE0E1AE0EB11CF8E0EF16F1047A
:1024400019F721E0C21AD108C9F681E090E06728A7
:1024500009F057CBE3CC20E030E040E85FE3C50172
:10246000B4010E94F21518166CF420E030E040E050
:1024700050E4C501B4010E948C1318161CF082E0D0
:1024800090E065CF20E030E040E050E4C501B401C9
:102490000E94F215181674F420E030E040E450E495
:1024A000C501B4010E948C13181624F0F801318282
:1024B000208250CF20E030E040E450E4C501B40178
:1024C0000E94F215181674F420E030E040E850E461
:1024D000C501B4010E948C13181624F0F801518232
:1024E000408238CF20E030E040E850E4C501B4013C
:1024F0000E94F21518166CF420E030E040EA50E437
:10250000C501B4010E948C1318161CF085E090E000
:102510001ECF20E030E040EA50E4C501B4010E9443
:10252000F21518166CF420E030E040EC50E4C501E0
:10253000B4010E948C1318161CF086E090E007CFBF
:1025400020E030E040EC50E4C501B4010E94F215F7
:1025500018166CF420E030E040EE50E4C501B40100
:102560000E948C1318161CF087E090E0F0CE20E05B
:1025700030E040EE50E4C501B4010E94F215181697
:102580006CF420E030E040E051E4C501B4010E9469
:102590008C1318161CF088E090E0D9CEF801118257
:1025A0001082D8CEC4010197F1F73CCFCF93DF93CF
:1025B000CCE2DAE0269788819981009711F00E9499
:1025C000CA1689E0CC3FD807A9F7DF91CF910895CB
:1025D0008F929F92AF92BF92CF92DF92EF92FF9233
:1025E000CF93DF93EC01688179818A819B816115AA
:1025F00071058105910521F464E279ED8BE597E0A1
:102600002DE133EF41E050E00E94B01449015A013E
:102610009B01AC01A7EAB1E40E94CF146B017C01DD
:10262000ACEEB4EFA50194010E94DD14C60ED71ED6
:10263000E81EF91EF7FE06C081E0C81AD108E108BD
:1026400080E8F80AC882D982EA82FB82C701B60113
:102650009F77DF91CF91FF90EF90DF90CF90BF9069
:10266000AF909F908F9008958F929F92AF92BF925C
:10267000CF92DF92EF92FF92609116037091170351
:1026800080911803909119036115710581059105D9
:1026900021F464E279ED8BE597E02DE133EF41E041
:1026A00050E00E94B01449015A019B01AC01A7EA15
:1026B000B1E40E94CF146B017C01ACEEB4EFA50134
:1026C00094010E94DD14C60ED71EE81EF91EF7FE07
:1026D00006C081E0C81AD108E10880E8F80AC09273
:1026E0001603D0921703E0921803F0921903C70162
:1026F000B6019F77FF90EF90DF90CF90BF90AF90A3
:102700009F908F90089560931603709317038093A2
:1027100018039093190308950E94CE1308F481E0E2
:102720000895E89409C097FB3EF4909580957095C4
:1027300061957F4F8F4F9F4F9923A9F0F92F96E90D
:10274000BB279395F695879577956795B795F11182
:10275000F8CFFAF4BB0F11F460FF1BC06F5F7F4F1F
:102760008F4F9F4F16C0882311F096E911C0772331
:1027700021F09EE8872F762F05C0662371F096E83A
:10278000862F70E060E02AF09A95660F771F881F09
:10279000DAF7880F9695879597F90895990F0008AD
:1027A000550FAA0BE0E8FEEF16161706E807F90723
:1027B000C0F012161306E407F50798F0621B730BBE
:1027C000840B950B39F40A2661F0232B242B252B3F
:1027D00021F408950A2609F4A140A6958FEF811DE2
:1027E000811D08950E9405140C9476140E946814AB
:1027F00038F00E946F1420F0952311F00C945F14B0
:102800000C94651411240C94AA140E94871470F37C
:10281000959FC1F3950F50E0551F629FF001729F85
:10282000BB27F00DB11D639FAA27F00DB11DAA1F94
:10283000649F6627B00DA11D661F829F2227B00DE1
:10284000A11D621F739FB00DA11D621F839FA00D6C
:10285000611D221F749F3327A00D611D231F849FBC
:10286000600D211D822F762F6A2F11249F57504013
:102870009AF0F1F088234AF0EE0FFF1FBB1F661F8E
:10288000771F881F91505040A9F79E3F510580F057
:102890000C945F140C94AA145F3FE4F3983ED4F3B5
:1028A000869577956795B795F795E7959F5FC1F7FB
:1028B000FE2B880F911D9695879597F9089597F9A6
:1028C0009F6780E870E060E008959FEF80EC0895D6
:1028D00000240A94161617061806090608950024FF
:1028E0000A9412161306140605060895092E039479
:1028F000000C11F4882352F0BB0F40F4BF2B11F4ED
:1029000060FF04C06F5F7F4F8F4F9F4F089557FD4B
:102910009058440F551F59F05F3F71F04795880F4D
:1029200097FB991F61F09F3F79F0879508951216E4
:1029300013061406551FF2CF4695F1DF08C0161690
:1029400017061806991FF1CF869571056105089441
:102950000895E894BB2766277727CB0197F9089558
:10296000052E97FB1EF400940E94C71457FD07D054
:102970000E94E21407FC03D04EF40C94C714509547
:102980004095309521953F4F4F4F5F4F089590955B
:102990008095709561957F4F8F4F9F4F08950E944E
:1029A0000415A59F900DB49F900DA49F800D911DBF
:1029B00011240895B7FF0C94CF140E94CF14821BEA
:1029C000930B0895A1E21A2EAA1BBB1BFD010DC09B
:1029D000AA1FBB1FEE1FFF1FA217B307E407F507CF
:1029E00020F0A21BB30BE40BF50B661F771F881FAB
:1029F000991F1A9469F760957095809590959B0141
:102A0000AC01BD01CF010895A29FB001B39FC001E9
:102A1000A39F700D811D1124911DB29F700D811D0A
:102A20001124911D08955058BB27AA270E942B15E9
:102A30000C9476140E94681438F00E946F1420F0F1
:102A400039F49F3F19F426F40C9465140EF4E095C4
:102A5000E7FB0C945F14E92F0E94871458F3BA1710
:102A6000620773078407950720F079F4A6F50C94A4
:102A7000A9140EF4E0950B2EBA2FA02D0B01B9016D
:102A800090010C01CA01A0011124FF27591B99F0E4
:102A9000593F50F4503E68F11A16F040A22F232FF0
:102AA000342F4427585FF3CF469537952795A79540
:102AB000F0405395C9F77EF41F16BA0B620B730BE7
:102AC000840BBAF09150A1F0FF0FBB1F661F771F58
:102AD000881FC2F70EC0BA0F621F731F841F48F40D
:102AE000879577956795B795F7959E3F08F0B0CF96
:102AF0009395880F08F09927EE0F9795879508957D
:102B00000E9494150C9476140E946F1458F00E9441
:102B1000681440F029F45F3F29F00C945F145111C0
:102B20000C94AA140C9465140E94871468F39923DA
:102B3000B1F3552391F3951B550BBB27AA276217B9
:102B40007307840738F09F5F5F4F220F331F441FC6
:102B5000AA1FA9F335D00E2E3AF0E0E832D09150FA
:102B60005040E695001CCAF72BD0FE2F29D0660FE7
:102B7000771F881FBB1F261737074807AB07B0E82A
:102B800009F0BB0B802DBF01FF2793585F4F3AF030
:102B90009E3F510578F00C945F140C94AA145F3F8B
:102BA000E4F3983ED4F3869577956795B795F795B6
:102BB0009F5FC9F7880F911D9695879597F908959E
:102BC000E1E0660F771F881FBB1F6217730784073A
:102BD000BA0720F0621B730B840BBA0BEE1F88F749
:102BE000E09508950E94CE1308F48FEF089597FBA7
:102BF000072E16F4009407D077FD09D00E941A160C
:102C000007FC05D03EF4909581959F4F08957095EF
:102C100061957F4F0895EE0FFF1F881F8BBF0790B0
:102C2000F691E02D19940E940415B7FF0895821BB8
:102C3000930B0895AA1BBB1B51E107C0AA1FBB1F22
:102C4000A617B70710F0A61BB70B881F991F5A9538
:102C5000A9F780959095BC01CD0108950F931F931E
:102C6000CF93DF938230910510F482E090E0E09101
:102C70008A0AF0918B0A30E020E0B0E0A0E03097C3
:102C800099F42115310509F44AC0281B390B243069
:102C90003105D8F58A819B816115710589F1FB01A8
:102CA00093838283FE0111C040815181028113818F
:102CB00048175907E0F04817590799F4109761F041
:102CC00012960C93129713961C933296CF01DF91B4
:102CD000CF911F910F91089500938A0A10938B0A48
:102CE000F4CF2115310551F04217530738F0A901EF
:102CF000DB019A01BD01DF01F801C1CFEF01F9CF7E
:102D000090938B0A80938A0ACDCFFE01E20FF31FC6
:102D1000819391932250310939832883D7CF209111
:102D2000880A3091890A232B41F420911C033091A9
:102D30001D033093890A2093880A20911A03309149
:102D40001B032115310541F42DB73EB740911E03F9
:102D500050911F03241B350BE091880AF091890ADA
:102D6000E217F307A0F42E1B3F0B2817390778F062
:102D7000AC014E5F5F4F2417350748F04E0F5F1FC1
:102D80005093890A4093880A819391939FCFF0E0F2
:102D9000E0E09CCFCF93DF930097E9F0FC013297FE
:102DA00013821282A0918A0AB0918B0AED0130E061
:102DB00020E01097A1F420813181820F931F209190
:102DC000880A3091890A2817390709F061C0F09301
:102DD000890AE093880ADF91CF910895EA01CE171E
:102DE000DF07E8F54A815B819E0141155105B1F786
:102DF000E901FB83EA8349915991C40FD51FEC1770
:102E0000FD0761F4808191810296840F951FE9018D
:102E100099838883828193819B838A83F0E0E0E0B9
:102E200012968D919C9113970097B9F52D913C9135
:102E30001197CD010296820F931F2091880A30913D
:102E4000890A2817390739F6309751F510928B0AFD
:102E500010928A0AB093890AA093880ABCCFD383C0
:102E6000C28340815181840F951FC817D90761F42F
:102E70004E5F5F4F88819981480F591F518340836E
:102E80008A819B81938382832115310509F0B0CF1C
:102E9000F0938B0AE0938A0A9ECFFD01DC01C0CF3C
:102EA00013821282D7CF4F925F926F927F928F924E
:102EB0009F92AF92BF92CF92DF92EF92FF920F93C9
:102EC0001F93CF93DF938C01009799F4CB01DF918F
:102ED000CF911F910F91FF90EF90DF90CF90BF9017
:102EE000AF909F908F907F906F905F904F900C94D9
:102EF0002E16FC01E60FF71F9C0122503109E21744
:102F0000F30708F4AEC0D901CD91DC911197C61733
:102F1000D70720F1C530D10578F0CE010497861788
:102F2000970750F0C61BD70B2297C193D1936D938F
:102F30007C93CF010E94CA16C801DF91CF911F91E7
:102F40000F91FF90EF90DF90CF90BF90AF909F9048
:102F50008F907F906F905F904F9008955B01AC1AB7
:102F6000BD0A4C018C0E9D1EA0918A0AB0918B0A5D
:102F7000512C412CF12CE12C109731F58091880ACD
:102F80009091890A8815990509F05CC04616570684
:102F900008F058C080911A0390911B03009741F4E8
:102FA0008DB79EB740911E0350911F03841B950B54
:102FB000E817F90708F055C0F093890AE093880AEA
:102FC000F90171836083B8CF8D919C91119712960E
:102FD0006C90129713967C901397A815B90559F524
:102FE0006C0142E0C40ED11CCA14DB0420F1AC0118
:102FF0004A195B09DA011296159780F06282738292
:1030000051834083D9016D937C93E114F10471F0F5
:10301000D7011396FC93EE9312978ECF22968C0FC6
:103020009D1FF90191838083F301EFCFF0938B0A09
:10303000E0938A0A81CF4816590608F42C017D01D5
:10304000D3019ACFCB010E942E167C01009749F044
:10305000AE01B8010E943418C8010E94CA16870147
:103060006BCF10E000E068CFFB01DC0102C00190F3
:103070000D9241505040D8F70895FB01DC010190BA
:103080000D920020E1F7089511E0C7E3D1E000E0E0
:1030900006C0802FFE010E940B162196011DC83329
:0C30A000D10780E00807A9F7F894FFCFE3
:1030AC007B00010300010001010000000000000092
:1030BC000000000000000000000000000000010102
:1030CC0001010000000000000000000000000100F1
:1030DC0000010000000000000000000000000100E2
:1030EC0000010000000000000000000000000101D1
:1030FC0001010000000000000000000000000100C1
:10310C0000000000000000000000000000000100B2
:10311C0000000000000000000000000000000000A3
:10312C00000000000000000000FFFFFFFFFFFFFF9A
:10313C00FFFFFF030000000000000101010101017D
:10314C00000000000000000000000101010101016D
:10315C00000000000000010000000100010101015D
:10316C00000001010000010101000100010100014A
:10317C00000100000000000000000100000100013F
:10318C00000100000000000100000100000000012F
:10319C00000001010000000000000101010101011B
:1031AC00000000000000000000000101010101010D
:1031BC000000000000010100000000008C0A8000EB
:1031CC0018001600020003000400050006000700AA
:1031DC00080009000A000B000C000D001700190074
:1031EC00000000007503DF020C03C2033D031B0348
:1031FC002F030D0A00352070756E746F732C2076BA
:10320C0069646120657874726100536967756965DA
:10321C006E7465206E6976656C0050554E54414A4B
:10322C0045530063686F7175652070617274652019
:10323C0066696E616C2064656C206176696F6E00E6
:10324C0063686F717565207061727465206D65645B
:10325C00696F2064656C206176696F6E0063686FBE
:10326C007175652074726F6D70612064656C20617E
:10327C0076696F6E00303030303030303030303076
:10328C003030303030303030303030303030303032
:10329C003030303030303030303030303030303022
:1032AC003030303030303030303030303030303012
:1032BC003030303030303030303030303030303002
:1032CC0030303030303030303030303030303030F2
:1032DC0030303030303030303030303030303030E2
:1032EC003030303030303030300030303030303002
:1032FC0031313131303031313030303031303030BB
:10330C0030303030303030313131313130303030AC
:10331C003031313131303131313130313131313095
:10332C00313131313030303130303030303030318B
:10333C003131313031303031303131313130313176
:10334C00313130303030303031303030313031316B
:10335C003130313131303131313031303030003089
:10336C003131313130313030313031303031303049
:10337C00313130303030303130303130303030313C
:10338C00303030303030303030313031303031302E
:10339C00303030313030303031303031303031311C
:1033AC003131313031303031303130303130313009
:1033BC0030313031303031303030303030303130FD
:1033CC0031303030313030303130303031303030ED
:1033DC003130300030313030313031313131303109
:1033EC0030303130313031303131313031303031C9
:1033FC0030303030313030313131303131313130B9
:10340C0031303031303131313130303031303031A8
:10341C003030303130303031303131313130313099
:10342C003031303131313130313030313030303089
:10343C00303030303130303030313030303130307D
:10344C003031303030303130003031313131303199
:10345C00313030303131313130303031303030305A
:10346C00303130303130313030313030303030304C
:10347C00313030303031303031303130303030303C
:10348C003030313031303030313131313130313127
:10349C00303030313030313031303030303130301C
:1034AC00313030303030303030313030303031300D
:1034BC00303031303030313030303031300030312C
:1034CC0030303030313031303031303031303030EC
:1034DC0031303030303031303031303130303130DB
:1034EC0030303030303130303030313030313031CC
:1034FC0030303030313030313030313030303030BD
:10350C0030313031303130303130303130313030A9
:10351C00303031303031303030303030303130319B
:10352C00303030313030303130303031303030318B
:10353C0030300030313030303031303031303130AB
:10354C00303130303031303030303030313130306B
:10355C003131313130303030303031313131303156
:10356C003131313031313131303031313030303046
:10357C003130303030303130313030313031313138
:10358C003130313030303031313131303030303029
:10359C003031303030313031313130313131303116
:1035AC00313130313030300030313030303030303B
:1035BC0030303030303030303030303030303030FF
:1035CC0030303030303030303030303030303030EF
:1035DC0030303030303030303030303030303030DF
:1035EC0030303030303030313131313030303030CB
:1035FC0030303030303030303030303030303030BF
:10360C0030303030303030303030303030303030AE
:10361C0030303030303030303030303000317300BA
:10362C003273002E004A5547415200337300455304
:10363C005441444953544943415300434F4E464926
:02364C00470035
:00000001FF
